{
  "abi": [
    {
      "inputs": [
        {
          "internalType": "contract DropERC1155",
          "name": "pickaxeContractAddress",
          "type": "address"
        },
        {
          "internalType": "contract TokenERC20",
          "name": "gemsContractAddress",
          "type": "address"
        }
      ],
      "stateMutability": "nonpayable",
      "type": "constructor"
    },
    {
      "inputs": [
        {
          "internalType": "address",
          "name": "_player",
          "type": "address"
        }
      ],
      "name": "calculateRewards",
      "outputs": [
        {
          "internalType": "uint256",
          "name": "_rewards",
          "type": "uint256"
        }
      ],
      "stateMutability": "view",
      "type": "function"
    },
    {
      "inputs": [],
      "name": "claim",
      "outputs": [],
      "stateMutability": "nonpayable",
      "type": "function"
    },
    {
      "inputs": [
        {
          "internalType": "address",
          "name": "",
          "type": "address"
        },
        {
          "internalType": "address",
          "name": "",
          "type": "address"
        },
        {
          "internalType": "uint256[]",
          "name": "",
          "type": "uint256[]"
        },
        {
          "internalType": "uint256[]",
          "name": "",
          "type": "uint256[]"
        },
        {
          "internalType": "bytes",
          "name": "",
          "type": "bytes"
        }
      ],
      "name": "onERC1155BatchReceived",
      "outputs": [
        {
          "internalType": "bytes4",
          "name": "",
          "type": "bytes4"
        }
      ],
      "stateMutability": "nonpayable",
      "type": "function"
    },
    {
      "inputs": [
        {
          "internalType": "address",
          "name": "",
          "type": "address"
        },
        {
          "internalType": "address",
          "name": "",
          "type": "address"
        },
        {
          "internalType": "uint256",
          "name": "",
          "type": "uint256"
        },
        {
          "internalType": "uint256",
          "name": "",
          "type": "uint256"
        },
        {
          "internalType": "bytes",
          "name": "",
          "type": "bytes"
        }
      ],
      "name": "onERC1155Received",
      "outputs": [
        {
          "internalType": "bytes4",
          "name": "",
          "type": "bytes4"
        }
      ],
      "stateMutability": "nonpayable",
      "type": "function"
    },
    {
      "inputs": [],
      "name": "pickaxeNftCollection",
      "outputs": [
        {
          "internalType": "contract DropERC1155",
          "name": "",
          "type": "address"
        }
      ],
      "stateMutability": "view",
      "type": "function"
    },
    {
      "inputs": [
        {
          "internalType": "address",
          "name": "",
          "type": "address"
        }
      ],
      "name": "playerLastUpdate",
      "outputs": [
        {
          "internalType": "bool",
          "name": "isData",
          "type": "bool"
        },
        {
          "internalType": "uint256",
          "name": "value",
          "type": "uint256"
        }
      ],
      "stateMutability": "view",
      "type": "function"
    },
    {
      "inputs": [
        {
          "internalType": "address",
          "name": "",
          "type": "address"
        }
      ],
      "name": "playerPickaxe",
      "outputs": [
        {
          "internalType": "bool",
          "name": "isData",
          "type": "bool"
        },
        {
          "internalType": "uint256",
          "name": "value",
          "type": "uint256"
        }
      ],
      "stateMutability": "view",
      "type": "function"
    },
    {
      "inputs": [],
      "name": "rewardsToken",
      "outputs": [
        {
          "internalType": "contract TokenERC20",
          "name": "",
          "type": "address"
        }
      ],
      "stateMutability": "view",
      "type": "function"
    },
    {
      "inputs": [
        {
          "internalType": "uint256",
          "name": "_tokenId",
          "type": "uint256"
        }
      ],
      "name": "stake",
      "outputs": [],
      "stateMutability": "nonpayable",
      "type": "function"
    },
    {
      "inputs": [
        {
          "internalType": "bytes4",
          "name": "interfaceId",
          "type": "bytes4"
        }
      ],
      "name": "supportsInterface",
      "outputs": [
        {
          "internalType": "bool",
          "name": "",
          "type": "bool"
        }
      ],
      "stateMutability": "view",
      "type": "function"
    },
    {
      "inputs": [],
      "name": "withdraw",
      "outputs": [],
      "stateMutability": "nonpayable",
      "type": "function"
    }
  ],
  "devdoc": {
    "kind": "dev",
    "methods": {
      "supportsInterface(bytes4)": {
        "details": "See {IERC165-supportsInterface}."
      }
    },
    "version": 1
  },
  "evm": {
    "assembly": "    /* \"Mining.sol\":465:5639  contract TTAMiningGameV1 is ReentrancyGuard, ERC1155Holder {... */\n  mstore(0x40, 0xc0)\n    /* \"Mining.sol\":791:1005  constructor(... */\n  callvalue\n  dup1\n  iszero\n  tag_1\n  jumpi\n  0x00\n  dup1\n  revert\ntag_1:\n  pop\n  mload(0x40)\n  sub(codesize, bytecodeSize)\n  dup1\n  bytecodeSize\n  dup4\n  codecopy\n  dup2\n  add\n  0x40\n  dup2\n  swap1\n  mstore\n  tag_2\n  swap2\n  tag_3\n  jump\t// in\ntag_2:\n    /* \"@openzeppelin/contracts/security/ReentrancyGuard.sol\":1716:1717   */\n  0x01\n    /* \"@openzeppelin/contracts/security/ReentrancyGuard.sol\":1821:1828   */\n  0x00\n    /* \"@openzeppelin/contracts/security/ReentrancyGuard.sol\":1821:1843   */\n  sstore\n  sub(shl(0xa0, 0x01), 0x01)\n    /* \"Mining.sol\":907:952  pickaxeNftCollection = pickaxeContractAddress */\n  swap2\n  dup3\n  and\n  0x80\n  mstore\n    /* \"Mining.sol\":963:997  rewardsToken = gemsContractAddress */\n  and\n  0xa0\n  mstore\n    /* \"Mining.sol\":465:5639  contract TTAMiningGameV1 is ReentrancyGuard, ERC1155Holder {... */\n  jump(tag_10)\n    /* \"#utility.yul\":14:158   */\ntag_9:\n  sub(shl(0xa0, 0x01), 0x01)\n    /* \"#utility.yul\":102:133   */\n  dup2\n  and\n    /* \"#utility.yul\":92:134   */\n  dup2\n  eq\n    /* \"#utility.yul\":82:152   */\n  tag_12\n  jumpi\n    /* \"#utility.yul\":148:149   */\n  0x00\n    /* \"#utility.yul\":145:146   */\n  dup1\n    /* \"#utility.yul\":138:150   */\n  revert\n    /* \"#utility.yul\":82:152   */\ntag_12:\n    /* \"#utility.yul\":14:158   */\n  pop\n  jump\t// out\n    /* \"#utility.yul\":163:613   */\ntag_3:\n    /* \"#utility.yul\":281:287   */\n  0x00\n    /* \"#utility.yul\":289:295   */\n  dup1\n    /* \"#utility.yul\":342:344   */\n  0x40\n    /* \"#utility.yul\":330:339   */\n  dup4\n    /* \"#utility.yul\":321:328   */\n  dup6\n    /* \"#utility.yul\":317:340   */\n  sub\n    /* \"#utility.yul\":313:345   */\n  slt\n    /* \"#utility.yul\":310:362   */\n  iszero\n  tag_14\n  jumpi\n    /* \"#utility.yul\":358:359   */\n  0x00\n    /* \"#utility.yul\":355:356   */\n  dup1\n    /* \"#utility.yul\":348:360   */\n  revert\n    /* \"#utility.yul\":310:362   */\ntag_14:\n    /* \"#utility.yul\":390:399   */\n  dup3\n    /* \"#utility.yul\":384:400   */\n  mload\n    /* \"#utility.yul\":409:453   */\n  tag_15\n    /* \"#utility.yul\":447:452   */\n  dup2\n    /* \"#utility.yul\":409:453   */\n  tag_9\n  jump\t// in\ntag_15:\n    /* \"#utility.yul\":522:524   */\n  0x20\n    /* \"#utility.yul\":507:525   */\n  dup5\n  add\n    /* \"#utility.yul\":501:526   */\n  mload\n    /* \"#utility.yul\":472:477   */\n  swap1\n  swap3\n  pop\n    /* \"#utility.yul\":535:581   */\n  tag_16\n    /* \"#utility.yul\":501:526   */\n  dup2\n    /* \"#utility.yul\":535:581   */\n  tag_9\n  jump\t// in\ntag_16:\n    /* \"#utility.yul\":600:607   */\n  dup1\n    /* \"#utility.yul\":590:607   */\n  swap2\n  pop\n  pop\n    /* \"#utility.yul\":163:613   */\n  swap3\n  pop\n  swap3\n  swap1\n  pop\n  jump\t// out\ntag_10:\n    /* \"Mining.sol\":465:5639  contract TTAMiningGameV1 is ReentrancyGuard, ERC1155Holder {... */\n  mload(0x80)\n  mload(0xa0)\n  codecopy(0x00, dataOffset(sub_0), dataSize(sub_0))\n  0x00\n  assignImmutable(\"0x1d3be50b2bb17407dd170f1d5da128d1def30c6b1598d6a629e79b4775265526\")\n  0x00\n  assignImmutable(\"0x7f8b6b088b6d74c2852fc86c796dca07b44eed6fb3daf5e6b59f7c364db14528\")\n  return(0x00, dataSize(sub_0))\nstop\n\nsub_0: assembly {\n        /* \"Mining.sol\":465:5639  contract TTAMiningGameV1 is ReentrancyGuard, ERC1155Holder {... */\n      mstore(0x40, 0x80)\n      callvalue\n      dup1\n      iszero\n      tag_1\n      jumpi\n      0x00\n      dup1\n      revert\n    tag_1:\n      pop\n      jumpi(tag_2, lt(calldatasize, 0x04))\n      shr(0xe0, calldataload(0x00))\n      dup1\n      0x8194aa77\n      gt\n      tag_14\n      jumpi\n      dup1\n      0xbc197c81\n      gt\n      tag_15\n      jumpi\n      dup1\n      0xbc197c81\n      eq\n      tag_11\n      jumpi\n      dup1\n      0xd1af0c7d\n      eq\n      tag_12\n      jumpi\n      dup1\n      0xf23a6e61\n      eq\n      tag_13\n      jumpi\n      0x00\n      dup1\n      revert\n    tag_15:\n      dup1\n      0x8194aa77\n      eq\n      tag_8\n      jumpi\n      dup1\n      0xa694fc3a\n      eq\n      tag_9\n      jumpi\n      dup1\n      0xa9b00e25\n      eq\n      tag_10\n      jumpi\n      0x00\n      dup1\n      revert\n    tag_14:\n      dup1\n      0x3ccfd60b\n      gt\n      tag_16\n      jumpi\n      dup1\n      0x3ccfd60b\n      eq\n      tag_5\n      jumpi\n      dup1\n      0x4e71d92d\n      eq\n      tag_6\n      jumpi\n      dup1\n      0x64ab8675\n      eq\n      tag_7\n      jumpi\n      0x00\n      dup1\n      revert\n    tag_16:\n      dup1\n      0x01ffc9a7\n      eq\n      tag_3\n      jumpi\n      dup1\n      0x06acb8c7\n      eq\n      tag_4\n      jumpi\n    tag_2:\n      0x00\n      dup1\n      revert\n        /* \"@thirdweb-dev/contracts/openzeppelin-presets/utils/ERC1155/ERC1155Receiver.sol\":398:619   */\n    tag_3:\n      tag_17\n      tag_18\n      calldatasize\n      0x04\n      tag_19\n      jump\t// in\n    tag_18:\n      tag_20\n      jump\t// in\n    tag_17:\n      mload(0x40)\n        /* \"#utility.yul\":470:484   */\n      swap1\n      iszero\n        /* \"#utility.yul\":463:485   */\n      iszero\n        /* \"#utility.yul\":445:486   */\n      dup2\n      mstore\n        /* \"#utility.yul\":433:435   */\n      0x20\n        /* \"#utility.yul\":418:436   */\n      add\n        /* \"@thirdweb-dev/contracts/openzeppelin-presets/utils/ERC1155/ERC1155Receiver.sol\":398:619   */\n    tag_21:\n      mload(0x40)\n      dup1\n      swap2\n      sub\n      swap1\n      return\n        /* \"Mining.sol\":1387:1436  mapping(address => MapValue) public playerPickaxe */\n    tag_4:\n      tag_23\n      tag_24\n      calldatasize\n      0x04\n      tag_25\n      jump\t// in\n    tag_24:\n      0x01\n      0x20\n      dup2\n      swap1\n      mstore\n      0x00\n      swap2\n      dup3\n      mstore\n      0x40\n      swap1\n      swap2\n      keccak256\n      dup1\n      sload\n      swap2\n      add\n      sload\n      0xff\n      swap1\n      swap2\n      and\n      swap1\n      dup3\n      jump\n    tag_23:\n      0x40\n      dup1\n      mload\n        /* \"#utility.yul\":1082:1096   */\n      swap3\n      iszero\n        /* \"#utility.yul\":1075:1097   */\n      iszero\n        /* \"#utility.yul\":1057:1098   */\n      dup4\n      mstore\n        /* \"#utility.yul\":1129:1131   */\n      0x20\n        /* \"#utility.yul\":1114:1132   */\n      dup4\n      add\n        /* \"#utility.yul\":1107:1141   */\n      swap2\n      swap1\n      swap2\n      mstore\n        /* \"#utility.yul\":1030:1048   */\n      add\n        /* \"Mining.sol\":1387:1436  mapping(address => MapValue) public playerPickaxe */\n      tag_21\n        /* \"#utility.yul\":889:1147   */\n      jump\n        /* \"Mining.sol\":3161:4094  function withdraw() external nonReentrant {... */\n    tag_5:\n      tag_29\n      tag_30\n      jump\t// in\n    tag_29:\n      stop\n        /* \"Mining.sol\":4102:4490  function claim() external nonReentrant {... */\n    tag_6:\n      tag_29\n      tag_32\n      jump\t// in\n        /* \"Mining.sol\":4830:5636  function calculateRewards(address _player)... */\n    tag_7:\n      tag_33\n      tag_34\n      calldatasize\n      0x04\n      tag_25\n      jump\t// in\n    tag_34:\n      tag_35\n      jump\t// in\n    tag_33:\n      mload(0x40)\n        /* \"#utility.yul\":1298:1323   */\n      swap1\n      dup2\n      mstore\n        /* \"#utility.yul\":1286:1288   */\n      0x20\n        /* \"#utility.yul\":1271:1289   */\n      add\n        /* \"Mining.sol\":4830:5636  function calculateRewards(address _player)... */\n      tag_21\n        /* \"#utility.yul\":1152:1329   */\n      jump\n        /* \"Mining.sol\":1616:1668  mapping(address => MapValue) public playerLastUpdate */\n    tag_8:\n      tag_23\n      tag_39\n      calldatasize\n      0x04\n      tag_25\n      jump\t// in\n    tag_39:\n      mstore(0x20, 0x02)\n      0x00\n      swap1\n      dup2\n      mstore\n      0x40\n      swap1\n      keccak256\n      dup1\n      sload\n      0x01\n      swap1\n      swap2\n      add\n      sload\n      0xff\n      swap1\n      swap2\n      and\n      swap1\n      dup3\n      jump\n        /* \"Mining.sol\":1677:3153  function stake(uint256 _tokenId) external nonReentrant {... */\n    tag_9:\n      tag_29\n      tag_43\n      calldatasize\n      0x04\n      tag_44\n      jump\t// in\n    tag_43:\n      tag_45\n      jump\t// in\n        /* \"Mining.sol\":599:648  DropERC1155 public immutable pickaxeNftCollection */\n    tag_10:\n      tag_46\n      immutable(\"0x7f8b6b088b6d74c2852fc86c796dca07b44eed6fb3daf5e6b59f7c364db14528\")\n      dup2\n      jump\n    tag_46:\n      mload(0x40)\n      sub(shl(0xa0, 0x01), 0x01)\n        /* \"#utility.yul\":1703:1758   */\n      swap1\n      swap2\n      and\n        /* \"#utility.yul\":1685:1759   */\n      dup2\n      mstore\n        /* \"#utility.yul\":1673:1675   */\n      0x20\n        /* \"#utility.yul\":1658:1676   */\n      add\n        /* \"Mining.sol\":599:648  DropERC1155 public immutable pickaxeNftCollection */\n      tag_21\n        /* \"#utility.yul\":1519:1765   */\n      jump\n        /* \"@thirdweb-dev/contracts/openzeppelin-presets/utils/ERC1155/ERC1155Holder.sol\":724:971   */\n    tag_11:\n      tag_50\n      tag_51\n      calldatasize\n      0x04\n      tag_52\n      jump\t// in\n    tag_51:\n      shl(0xe0, 0xbc197c81)\n      swap6\n      swap5\n      pop\n      pop\n      pop\n      pop\n      pop\n      jump\n    tag_50:\n      mload(0x40)\n      not(sub(shl(0xe0, 0x01), 0x01))\n        /* \"#utility.yul\":4544:4577   */\n      swap1\n      swap2\n      and\n        /* \"#utility.yul\":4526:4578   */\n      dup2\n      mstore\n        /* \"#utility.yul\":4514:4516   */\n      0x20\n        /* \"#utility.yul\":4499:4517   */\n      add\n        /* \"@thirdweb-dev/contracts/openzeppelin-presets/utils/ERC1155/ERC1155Holder.sol\":724:971   */\n      tag_21\n        /* \"#utility.yul\":4382:4584   */\n      jump\n        /* \"Mining.sol\":655:695  TokenERC20 public immutable rewardsToken */\n    tag_12:\n      tag_46\n      immutable(\"0x1d3be50b2bb17407dd170f1d5da128d1def30c6b1598d6a629e79b4775265526\")\n      dup2\n      jump\n        /* \"@thirdweb-dev/contracts/openzeppelin-presets/utils/ERC1155/ERC1155Holder.sol\":499:718   */\n    tag_13:\n      tag_50\n      tag_61\n      calldatasize\n      0x04\n      tag_62\n      jump\t// in\n    tag_61:\n      shl(0xe0, 0xf23a6e61)\n      swap6\n      swap5\n      pop\n      pop\n      pop\n      pop\n      pop\n      jump\n        /* \"@thirdweb-dev/contracts/openzeppelin-presets/utils/ERC1155/ERC1155Receiver.sol\":398:619   */\n    tag_20:\n        /* \"@thirdweb-dev/contracts/openzeppelin-presets/utils/ERC1155/ERC1155Receiver.sol\":500:504   */\n      0x00\n      not(sub(shl(0xe0, 0x01), 0x01))\n        /* \"@thirdweb-dev/contracts/openzeppelin-presets/utils/ERC1155/ERC1155Receiver.sol\":523:572   */\n      dup3\n      and\n      shl(0xe5, 0x02711897)\n      eq\n      dup1\n        /* \"@thirdweb-dev/contracts/openzeppelin-presets/utils/ERC1155/ERC1155Receiver.sol\":523:612   */\n      tag_67\n      jumpi\n      pop\n      shl(0xe0, 0x01ffc9a7)\n      not(sub(shl(0xe0, 0x01), 0x01))\n        /* \"@thirdweb-dev/contracts/eip/ERC165.sol\":947:987   */\n      dup4\n      and\n      eq\n        /* \"@thirdweb-dev/contracts/openzeppelin-presets/utils/ERC1155/ERC1155Receiver.sol\":576:612   */\n    tag_67:\n        /* \"@thirdweb-dev/contracts/openzeppelin-presets/utils/ERC1155/ERC1155Receiver.sol\":516:612   */\n      swap3\n        /* \"@thirdweb-dev/contracts/openzeppelin-presets/utils/ERC1155/ERC1155Receiver.sol\":398:619   */\n      swap2\n      pop\n      pop\n      jump\t// out\n        /* \"Mining.sol\":3161:4094  function withdraw() external nonReentrant {... */\n    tag_30:\n        /* \"@openzeppelin/contracts/security/ReentrancyGuard.sol\":2261:2282   */\n      tag_70\n        /* \"@openzeppelin/contracts/security/ReentrancyGuard.sol\":2261:2280   */\n      tag_71\n        /* \"@openzeppelin/contracts/security/ReentrancyGuard.sol\":2261:2282   */\n      jump\t// in\n    tag_70:\n        /* \"Mining.sol\":3294:3304  msg.sender */\n      caller\n        /* \"Mining.sol\":3280:3305  playerPickaxe[msg.sender] */\n      0x00\n      swap1\n      dup2\n      mstore\n        /* \"Mining.sol\":3280:3293  playerPickaxe */\n      0x01\n        /* \"Mining.sol\":3280:3305  playerPickaxe[msg.sender] */\n      0x20\n      mstore\n      0x40\n      swap1\n      keccak256\n        /* \"Mining.sol\":3280:3312  playerPickaxe[msg.sender].isData */\n      sload\n      0xff\n      and\n        /* \"Mining.sol\":3258:3378  require(... */\n      tag_73\n      jumpi\n      mload(0x40)\n      shl(0xe5, 0x461bcd)\n      dup2\n      mstore\n        /* \"#utility.yul\":5652:5654   */\n      0x20\n        /* \"Mining.sol\":3258:3378  require(... */\n      0x04\n      dup3\n      add\n        /* \"#utility.yul\":5634:5655   */\n      mstore\n        /* \"#utility.yul\":5691:5693   */\n      0x26\n        /* \"#utility.yul\":5671:5689   */\n      0x24\n      dup3\n      add\n        /* \"#utility.yul\":5664:5694   */\n      mstore\n        /* \"#utility.yul\":5730:5764   */\n      0x596f7520646f206e6f7420686176652061207069636b61786520746f20776974\n        /* \"#utility.yul\":5710:5728   */\n      0x44\n      dup3\n      add\n        /* \"#utility.yul\":5703:5765   */\n      mstore\n        /* \"#utility.yul\":5801:5809   */\n      0x68647261772e0000000000000000000000000000000000000000000000000000\n        /* \"#utility.yul\":5781:5799   */\n      0x64\n      dup3\n      add\n        /* \"#utility.yul\":5774:5810   */\n      mstore\n        /* \"#utility.yul\":5827:5846   */\n      0x84\n      add\n        /* \"Mining.sol\":3258:3378  require(... */\n    tag_74:\n      mload(0x40)\n      dup1\n      swap2\n      sub\n      swap1\n      revert\n    tag_73:\n        /* \"Mining.sol\":3458:3472  uint256 reward */\n      0x00\n        /* \"Mining.sol\":3475:3503  calculateRewards(msg.sender) */\n      tag_76\n        /* \"Mining.sol\":3492:3502  msg.sender */\n      caller\n        /* \"Mining.sol\":3475:3491  calculateRewards */\n      tag_35\n        /* \"Mining.sol\":3475:3503  calculateRewards(msg.sender) */\n      jump\t// in\n    tag_76:\n        /* \"Mining.sol\":3514:3555  rewardsToken.transfer(msg.sender, reward) */\n      mload(0x40)\n      shl(0xe0, 0xa9059cbb)\n      dup2\n      mstore\n        /* \"Mining.sol\":3536:3546  msg.sender */\n      caller\n        /* \"Mining.sol\":3514:3555  rewardsToken.transfer(msg.sender, reward) */\n      0x04\n      dup3\n      add\n        /* \"#utility.yul\":6031:6105   */\n      mstore\n        /* \"#utility.yul\":6121:6139   */\n      0x24\n      dup2\n      add\n        /* \"#utility.yul\":6114:6148   */\n      dup3\n      swap1\n      mstore\n        /* \"Mining.sol\":3458:3503  uint256 reward = calculateRewards(msg.sender) */\n      swap1\n      swap2\n      pop\n        /* \"Mining.sol\":3514:3526  rewardsToken */\n      immutable(\"0x1d3be50b2bb17407dd170f1d5da128d1def30c6b1598d6a629e79b4775265526\")\n      sub(shl(0xa0, 0x01), 0x01)\n        /* \"Mining.sol\":3514:3535  rewardsToken.transfer */\n      and\n      swap1\n      0xa9059cbb\n      swap1\n        /* \"#utility.yul\":6004:6022   */\n      0x44\n      add\n        /* \"Mining.sol\":3514:3555  rewardsToken.transfer(msg.sender, reward) */\n      0x20\n      mload(0x40)\n      dup1\n      dup4\n      sub\n      dup2\n      0x00\n      dup8\n      gas\n      call\n      iszero\n      dup1\n      iszero\n      tag_80\n      jumpi\n      returndatasize\n      0x00\n      dup1\n      returndatacopy\n      revert(0x00, returndatasize)\n    tag_80:\n      pop\n      pop\n      pop\n      pop\n      mload(0x40)\n      returndatasize\n      not(0x1f)\n      0x1f\n      dup3\n      add\n      and\n      dup3\n      add\n      dup1\n      0x40\n      mstore\n      pop\n      dup2\n      add\n      swap1\n      tag_81\n      swap2\n      swap1\n      tag_82\n      jump\t// in\n    tag_81:\n      pop\n        /* \"Mining.sol\":3696:3706  msg.sender */\n      caller\n        /* \"Mining.sol\":3721:3746  playerPickaxe[msg.sender] */\n      0x00\n      dup2\n      dup2\n      mstore\n        /* \"Mining.sol\":3721:3734  playerPickaxe */\n      0x01\n        /* \"Mining.sol\":3721:3746  playerPickaxe[msg.sender] */\n      0x20\n      dup2\n      swap1\n      mstore\n      0x40\n      swap2\n      dup3\n      swap1\n      keccak256\n        /* \"Mining.sol\":3721:3752  playerPickaxe[msg.sender].value */\n      dup2\n      add\n      sload\n        /* \"Mining.sol\":3616:3822  pickaxeNftCollection.safeTransferFrom(... */\n      swap2\n      mload\n      shl(0xe1, 0x79212195)\n      dup2\n      mstore\n        /* \"Mining.sol\":3676:3680  this */\n      address\n        /* \"Mining.sol\":3616:3822  pickaxeNftCollection.safeTransferFrom(... */\n      0x04\n      dup3\n      add\n        /* \"#utility.yul\":6805:6839   */\n      mstore\n        /* \"#utility.yul\":6855:6873   */\n      0x24\n      dup2\n      add\n        /* \"#utility.yul\":6848:6891   */\n      swap4\n      swap1\n      swap4\n      mstore\n        /* \"#utility.yul\":6907:6925   */\n      0x44\n      dup4\n      add\n        /* \"#utility.yul\":6900:6934   */\n      swap2\n      swap1\n      swap2\n      mstore\n        /* \"#utility.yul\":6950:6968   */\n      0x64\n      dup3\n      add\n        /* \"#utility.yul\":6943:6977   */\n      mstore\n        /* \"#utility.yul\":7014:7017   */\n      0xa0\n        /* \"#utility.yul\":6993:7012   */\n      0x84\n      dup3\n      add\n        /* \"#utility.yul\":6986:7018   */\n      mstore\n        /* \"#utility.yul\":7055:7057   */\n      0x1a\n        /* \"#utility.yul\":7034:7053   */\n      0xa4\n      dup3\n      add\n        /* \"#utility.yul\":7027:7058   */\n      mstore\n        /* \"#utility.yul\":7095:7123   */\n      0x52657475726e696e6720796f7572206f6c64207069636b617865000000000000\n        /* \"#utility.yul\":7074:7093   */\n      0xc4\n      dup3\n      add\n        /* \"#utility.yul\":7067:7124   */\n      mstore\n        /* \"Mining.sol\":3616:3636  pickaxeNftCollection */\n      immutable(\"0x7f8b6b088b6d74c2852fc86c796dca07b44eed6fb3daf5e6b59f7c364db14528\")\n      sub(shl(0xa0, 0x01), 0x01)\n        /* \"Mining.sol\":3616:3653  pickaxeNftCollection.safeTransferFrom */\n      and\n      swap1\n      0xf242432a\n      swap1\n        /* \"#utility.yul\":7141:7160   */\n      0xe4\n      add\n        /* \"Mining.sol\":3616:3822  pickaxeNftCollection.safeTransferFrom(... */\n      0x00\n      mload(0x40)\n      dup1\n      dup4\n      sub\n      dup2\n      0x00\n      dup8\n      dup1\n      extcodesize\n      iszero\n      dup1\n      iszero\n      tag_85\n      jumpi\n      0x00\n      dup1\n      revert\n    tag_85:\n      pop\n      gas\n      call\n      iszero\n      dup1\n      iszero\n      tag_87\n      jumpi\n      returndatasize\n      0x00\n      dup1\n      returndatacopy\n      revert(0x00, returndatasize)\n    tag_87:\n      pop\n      pop\n        /* \"Mining.sol\":3894:3904  msg.sender */\n      caller\n        /* \"Mining.sol\":3915:3920  false */\n      0x00\n        /* \"Mining.sol\":3880:3905  playerPickaxe[msg.sender] */\n      swap1\n      dup2\n      mstore\n        /* \"Mining.sol\":3880:3893  playerPickaxe */\n      0x01\n        /* \"Mining.sol\":3880:3905  playerPickaxe[msg.sender] */\n      0x20\n      dup2\n      dup2\n      mstore\n      0x40\n      dup1\n      dup5\n      keccak256\n        /* \"Mining.sol\":3880:3920  playerPickaxe[msg.sender].isData = false */\n      dup1\n      sload\n      not(0xff)\n      swap1\n      dup2\n      and\n      swap1\n      swap2\n      sstore\n        /* \"Mining.sol\":3981:3997  playerLastUpdate */\n      0x02\n        /* \"Mining.sol\":3981:4009  playerLastUpdate[msg.sender] */\n      swap1\n      swap3\n      mstore\n      swap1\n      swap3\n      keccak256\n        /* \"Mining.sol\":3981:4023  playerLastUpdate[msg.sender].isData = true */\n      dup1\n      sload\n      swap1\n      swap3\n      and\n      dup2\n      or\n      dup3\n      sstore\n        /* \"Mining.sol\":4071:4086  block.timestamp */\n      timestamp\n        /* \"Mining.sol\":4034:4068  playerLastUpdate[msg.sender].value */\n      swap2\n      add\n        /* \"Mining.sol\":4034:4086  playerLastUpdate[msg.sender].value = block.timestamp */\n      sstore\n      pop\n        /* \"@openzeppelin/contracts/security/ReentrancyGuard.sol\":2303:2323   */\n      tag_88\n      swap2\n      pop\n        /* \"@openzeppelin/contracts/security/ReentrancyGuard.sol\":2303:2321   */\n      tag_89\n      swap1\n      pop\n        /* \"@openzeppelin/contracts/security/ReentrancyGuard.sol\":2303:2323   */\n      jump\t// in\n    tag_88:\n        /* \"Mining.sol\":3161:4094  function withdraw() external nonReentrant {... */\n      jump\t// out\n        /* \"Mining.sol\":4102:4490  function claim() external nonReentrant {... */\n    tag_32:\n        /* \"@openzeppelin/contracts/security/ReentrancyGuard.sol\":2261:2282   */\n      tag_91\n        /* \"@openzeppelin/contracts/security/ReentrancyGuard.sol\":2261:2280   */\n      tag_71\n        /* \"@openzeppelin/contracts/security/ReentrancyGuard.sol\":2261:2282   */\n      jump\t// in\n    tag_91:\n        /* \"Mining.sol\":4219:4233  uint256 reward */\n      0x00\n        /* \"Mining.sol\":4236:4264  calculateRewards(msg.sender) */\n      tag_93\n        /* \"Mining.sol\":4253:4263  msg.sender */\n      caller\n        /* \"Mining.sol\":4236:4252  calculateRewards */\n      tag_35\n        /* \"Mining.sol\":4236:4264  calculateRewards(msg.sender) */\n      jump\t// in\n    tag_93:\n        /* \"Mining.sol\":4275:4316  rewardsToken.transfer(msg.sender, reward) */\n      mload(0x40)\n      shl(0xe0, 0xa9059cbb)\n      dup2\n      mstore\n        /* \"Mining.sol\":4297:4307  msg.sender */\n      caller\n        /* \"Mining.sol\":4275:4316  rewardsToken.transfer(msg.sender, reward) */\n      0x04\n      dup3\n      add\n        /* \"#utility.yul\":6031:6105   */\n      mstore\n        /* \"#utility.yul\":6121:6139   */\n      0x24\n      dup2\n      add\n        /* \"#utility.yul\":6114:6148   */\n      dup3\n      swap1\n      mstore\n        /* \"Mining.sol\":4219:4264  uint256 reward = calculateRewards(msg.sender) */\n      swap1\n      swap2\n      pop\n        /* \"Mining.sol\":4275:4287  rewardsToken */\n      immutable(\"0x1d3be50b2bb17407dd170f1d5da128d1def30c6b1598d6a629e79b4775265526\")\n      sub(shl(0xa0, 0x01), 0x01)\n        /* \"Mining.sol\":4275:4296  rewardsToken.transfer */\n      and\n      swap1\n      0xa9059cbb\n      swap1\n        /* \"#utility.yul\":6004:6022   */\n      0x44\n      add\n        /* \"Mining.sol\":4275:4316  rewardsToken.transfer(msg.sender, reward) */\n      0x20\n      mload(0x40)\n      dup1\n      dup4\n      sub\n      dup2\n      0x00\n      dup8\n      gas\n      call\n      iszero\n      dup1\n      iszero\n      tag_96\n      jumpi\n      returndatasize\n      0x00\n      dup1\n      returndatacopy\n      revert(0x00, returndatasize)\n    tag_96:\n      pop\n      pop\n      pop\n      pop\n      mload(0x40)\n      returndatasize\n      not(0x1f)\n      0x1f\n      dup3\n      add\n      and\n      dup3\n      add\n      dup1\n      0x40\n      mstore\n      pop\n      dup2\n      add\n      swap1\n      tag_97\n      swap2\n      swap1\n      tag_82\n      jump\t// in\n    tag_97:\n      pop\n      pop\n        /* \"Mining.sol\":4394:4404  msg.sender */\n      caller\n        /* \"Mining.sol\":4377:4405  playerLastUpdate[msg.sender] */\n      0x00\n      swap1\n      dup2\n      mstore\n        /* \"Mining.sol\":4377:4393  playerLastUpdate */\n      0x02\n        /* \"Mining.sol\":4377:4405  playerLastUpdate[msg.sender] */\n      0x20\n      mstore\n      0x40\n      swap1\n      keccak256\n        /* \"Mining.sol\":4377:4419  playerLastUpdate[msg.sender].isData = true */\n      dup1\n      sload\n      not(0xff)\n      and\n        /* \"Mining.sol\":4415:4419  true */\n      0x01\n        /* \"Mining.sol\":4377:4419  playerLastUpdate[msg.sender].isData = true */\n      swap1\n      dup2\n      or\n      dup3\n      sstore\n        /* \"Mining.sol\":4467:4482  block.timestamp */\n      timestamp\n        /* \"Mining.sol\":4430:4464  playerLastUpdate[msg.sender].value */\n      swap2\n      add\n        /* \"Mining.sol\":4430:4482  playerLastUpdate[msg.sender].value = block.timestamp */\n      sstore\n        /* \"@openzeppelin/contracts/security/ReentrancyGuard.sol\":2303:2323   */\n      tag_88\n        /* \"@openzeppelin/contracts/security/ReentrancyGuard.sol\":1716:1717   */\n      0x01\n        /* \"@openzeppelin/contracts/security/ReentrancyGuard.sol\":2809:2816   */\n      0x00\n        /* \"@openzeppelin/contracts/security/ReentrancyGuard.sol\":2809:2831   */\n      sstore\n        /* \"@openzeppelin/contracts/security/ReentrancyGuard.sol\":2629:2838   */\n      jump\n        /* \"Mining.sol\":4830:5636  function calculateRewards(address _player)... */\n    tag_35:\n      sub(shl(0xa0, 0x01), 0x01)\n        /* \"Mining.sol\":5067:5092  playerLastUpdate[_player] */\n      dup2\n      and\n        /* \"Mining.sol\":4921:4937  uint256 _rewards */\n      0x00\n        /* \"Mining.sol\":5067:5092  playerLastUpdate[_player] */\n      swap1\n      dup2\n      mstore\n        /* \"Mining.sol\":5067:5083  playerLastUpdate */\n      0x02\n        /* \"Mining.sol\":5067:5092  playerLastUpdate[_player] */\n      0x20\n      mstore\n      0x40\n      dup2\n      keccak256\n        /* \"Mining.sol\":5067:5099  playerLastUpdate[_player].isData */\n      sload\n      0xff\n      and\n        /* \"Mining.sol\":5066:5099  !playerLastUpdate[_player].isData */\n      iszero\n      dup1\n        /* \"Mining.sol\":5066:5133  !playerLastUpdate[_player].isData || !playerPickaxe[_player].isData */\n      tag_100\n      jumpi\n      pop\n      sub(shl(0xa0, 0x01), 0x01)\n        /* \"Mining.sol\":5104:5126  playerPickaxe[_player] */\n      dup3\n      and\n      0x00\n      swap1\n      dup2\n      mstore\n        /* \"Mining.sol\":5104:5117  playerPickaxe */\n      0x01\n        /* \"Mining.sol\":5104:5126  playerPickaxe[_player] */\n      0x20\n      mstore\n      0x40\n      swap1\n      keccak256\n        /* \"Mining.sol\":5104:5133  playerPickaxe[_player].isData */\n      sload\n      0xff\n      and\n        /* \"Mining.sol\":5103:5133  !playerPickaxe[_player].isData */\n      iszero\n        /* \"Mining.sol\":5066:5133  !playerLastUpdate[_player].isData || !playerPickaxe[_player].isData */\n    tag_100:\n        /* \"Mining.sol\":5048:5180  if (... */\n      iszero\n      tag_101\n      jumpi\n      pop\n        /* \"Mining.sol\":5167:5168  0 */\n      0x00\n      swap2\n        /* \"Mining.sol\":4830:5636  function calculateRewards(address _player)... */\n      swap1\n      pop\n      jump\t// out\n        /* \"Mining.sol\":5048:5180  if (... */\n    tag_101:\n      sub(shl(0xa0, 0x01), 0x01)\n        /* \"Mining.sol\":5363:5388  playerLastUpdate[_player] */\n      dup3\n      and\n        /* \"Mining.sol\":5307:5329  uint256 timeDifference */\n      0x00\n        /* \"Mining.sol\":5363:5388  playerLastUpdate[_player] */\n      swap1\n      dup2\n      mstore\n        /* \"Mining.sol\":5363:5379  playerLastUpdate */\n      0x02\n        /* \"Mining.sol\":5363:5388  playerLastUpdate[_player] */\n      0x20\n      mstore\n      0x40\n      dup2\n      keccak256\n        /* \"Mining.sol\":5363:5394  playerLastUpdate[_player].value */\n      0x01\n      add\n      sload\n        /* \"Mining.sol\":5332:5394  block.timestamp -... */\n      tag_102\n      swap1\n        /* \"Mining.sol\":5332:5347  block.timestamp */\n      timestamp\n        /* \"Mining.sol\":5332:5394  block.timestamp -... */\n      tag_103\n      jump\t// in\n    tag_102:\n      sub(shl(0xa0, 0x01), 0x01)\n        /* \"Mining.sol\":5537:5559  playerPickaxe[_player] */\n      dup5\n      and\n        /* \"Mining.sol\":5455:5470  uint256 rewards */\n      0x00\n        /* \"Mining.sol\":5537:5559  playerPickaxe[_player] */\n      swap1\n      dup2\n      mstore\n        /* \"Mining.sol\":5537:5550  playerPickaxe */\n      0x01\n        /* \"Mining.sol\":5537:5559  playerPickaxe[_player] */\n      0x20\n      dup2\n      swap1\n      mstore\n      0x40\n      dup3\n      keccak256\n        /* \"Mining.sol\":5537:5565  playerPickaxe[_player].value */\n      dup2\n      add\n      sload\n        /* \"Mining.sol\":5307:5394  uint256 timeDifference = block.timestamp -... */\n      swap3\n      swap4\n      pop\n        /* \"Mining.sol\":5455:5470  uint256 rewards */\n      swap1\n      swap2\n        /* \"Mining.sol\":5537:5569  playerPickaxe[_player].value + 1 */\n      tag_104\n      swap2\n      tag_105\n      jump\t// in\n    tag_104:\n        /* \"Mining.sol\":5473:5520  timeDifference *... */\n      tag_106\n        /* \"Mining.sol\":5473:5487  timeDifference */\n      dup4\n        /* \"Mining.sol\":5503:5520  1_000_000_000_000 */\n      0xe8d4a51000\n        /* \"Mining.sol\":5473:5520  timeDifference *... */\n      tag_107\n      jump\t// in\n    tag_106:\n        /* \"Mining.sol\":5473:5570  timeDifference *... */\n      tag_108\n      swap2\n      swap1\n      tag_107\n      jump\t// in\n    tag_108:\n        /* \"Mining.sol\":5455:5570  uint256 rewards = timeDifference *... */\n      swap5\n        /* \"Mining.sol\":4830:5636  function calculateRewards(address _player)... */\n      swap4\n      pop\n      pop\n      pop\n      pop\n      jump\t// out\n        /* \"Mining.sol\":1677:3153  function stake(uint256 _tokenId) external nonReentrant {... */\n    tag_45:\n        /* \"@openzeppelin/contracts/security/ReentrancyGuard.sol\":2261:2282   */\n      tag_110\n        /* \"@openzeppelin/contracts/security/ReentrancyGuard.sol\":2261:2280   */\n      tag_71\n        /* \"@openzeppelin/contracts/security/ReentrancyGuard.sol\":2261:2282   */\n      jump\t// in\n    tag_110:\n        /* \"Mining.sol\":1848:1900  pickaxeNftCollection.balanceOf(msg.sender, _tokenId) */\n      mload(0x40)\n      shl(0xe1, 0x7eeac7)\n      dup2\n      mstore\n        /* \"Mining.sol\":1879:1889  msg.sender */\n      caller\n        /* \"Mining.sol\":1848:1900  pickaxeNftCollection.balanceOf(msg.sender, _tokenId) */\n      0x04\n      dup3\n      add\n        /* \"#utility.yul\":6031:6105   */\n      mstore\n        /* \"#utility.yul\":6121:6139   */\n      0x24\n      dup2\n      add\n        /* \"#utility.yul\":6114:6148   */\n      dup3\n      swap1\n      mstore\n        /* \"Mining.sol\":1904:1905  1 */\n      0x01\n      swap1\n        /* \"Mining.sol\":1848:1868  pickaxeNftCollection */\n      immutable(\"0x7f8b6b088b6d74c2852fc86c796dca07b44eed6fb3daf5e6b59f7c364db14528\")\n      sub(shl(0xa0, 0x01), 0x01)\n        /* \"Mining.sol\":1848:1878  pickaxeNftCollection.balanceOf */\n      and\n      swap1\n      0xfdd58e\n      swap1\n        /* \"#utility.yul\":6004:6022   */\n      0x44\n      add\n        /* \"Mining.sol\":1848:1900  pickaxeNftCollection.balanceOf(msg.sender, _tokenId) */\n      0x20\n      mload(0x40)\n      dup1\n      dup4\n      sub\n      dup2\n      dup7\n      gas\n      staticcall\n      iszero\n      dup1\n      iszero\n      tag_114\n      jumpi\n      returndatasize\n      0x00\n      dup1\n      returndatacopy\n      revert(0x00, returndatasize)\n    tag_114:\n      pop\n      pop\n      pop\n      pop\n      mload(0x40)\n      returndatasize\n      not(0x1f)\n      0x1f\n      dup3\n      add\n      and\n      dup3\n      add\n      dup1\n      0x40\n      mstore\n      pop\n      dup2\n      add\n      swap1\n      tag_115\n      swap2\n      swap1\n      tag_116\n      jump\t// in\n    tag_115:\n        /* \"Mining.sol\":1848:1905  pickaxeNftCollection.balanceOf(msg.sender, _tokenId) >= 1 */\n      lt\n      iszero\n        /* \"Mining.sol\":1826:1996  require(... */\n      tag_117\n      jumpi\n      mload(0x40)\n      shl(0xe5, 0x461bcd)\n      dup2\n      mstore\n        /* \"#utility.yul\":8130:8132   */\n      0x20\n        /* \"Mining.sol\":1826:1996  require(... */\n      0x04\n      dup3\n      add\n        /* \"#utility.yul\":8112:8133   */\n      mstore\n        /* \"#utility.yul\":8169:8171   */\n      0x3f\n        /* \"#utility.yul\":8149:8167   */\n      0x24\n      dup3\n      add\n        /* \"#utility.yul\":8142:8172   */\n      mstore\n        /* \"#utility.yul\":8208:8242   */\n      0x596f75206d7573742068617665206174206c656173742031206f662074686520\n        /* \"#utility.yul\":8188:8206   */\n      0x44\n      dup3\n      add\n        /* \"#utility.yul\":8181:8243   */\n      mstore\n        /* \"#utility.yul\":8279:8312   */\n      0x7069636b61786520796f752061726520747279696e6720746f207374616b6500\n        /* \"#utility.yul\":8259:8277   */\n      0x64\n      dup3\n      add\n        /* \"#utility.yul\":8252:8313   */\n      mstore\n        /* \"#utility.yul\":8330:8349   */\n      0x84\n      add\n        /* \"Mining.sol\":1826:1996  require(... */\n      tag_74\n        /* \"#utility.yul\":7928:8355   */\n      jump\n        /* \"Mining.sol\":1826:1996  require(... */\n    tag_117:\n        /* \"Mining.sol\":2093:2103  msg.sender */\n      caller\n        /* \"Mining.sol\":2079:2104  playerPickaxe[msg.sender] */\n      0x00\n      swap1\n      dup2\n      mstore\n        /* \"Mining.sol\":2079:2092  playerPickaxe */\n      0x01\n        /* \"Mining.sol\":2079:2104  playerPickaxe[msg.sender] */\n      0x20\n      mstore\n      0x40\n      swap1\n      keccak256\n        /* \"Mining.sol\":2079:2111  playerPickaxe[msg.sender].isData */\n      sload\n      0xff\n      and\n        /* \"Mining.sol\":2075:2414  if (playerPickaxe[msg.sender].isData) {... */\n      iszero\n      tag_120\n      jumpi\n        /* \"Mining.sol\":2260:2270  msg.sender */\n      caller\n        /* \"Mining.sol\":2289:2314  playerPickaxe[msg.sender] */\n      0x00\n      dup2\n      dup2\n      mstore\n        /* \"Mining.sol\":2289:2302  playerPickaxe */\n      0x01\n        /* \"Mining.sol\":2289:2314  playerPickaxe[msg.sender] */\n      0x20\n      dup2\n      swap1\n      mstore\n      0x40\n      swap2\n      dup3\n      swap1\n      keccak256\n        /* \"Mining.sol\":2289:2320  playerPickaxe[msg.sender].value */\n      dup2\n      add\n      sload\n        /* \"Mining.sol\":2172:2402  pickaxeNftCollection.safeTransferFrom(... */\n      swap2\n      mload\n      shl(0xe1, 0x79212195)\n      dup2\n      mstore\n        /* \"Mining.sol\":2236:2240  this */\n      address\n        /* \"Mining.sol\":2172:2402  pickaxeNftCollection.safeTransferFrom(... */\n      0x04\n      dup3\n      add\n        /* \"#utility.yul\":6805:6839   */\n      mstore\n        /* \"#utility.yul\":6855:6873   */\n      0x24\n      dup2\n      add\n        /* \"#utility.yul\":6848:6891   */\n      swap4\n      swap1\n      swap4\n      mstore\n        /* \"#utility.yul\":6907:6925   */\n      0x44\n      dup4\n      add\n        /* \"#utility.yul\":6900:6934   */\n      swap2\n      swap1\n      swap2\n      mstore\n        /* \"#utility.yul\":6950:6968   */\n      0x64\n      dup3\n      add\n        /* \"#utility.yul\":6943:6977   */\n      mstore\n        /* \"#utility.yul\":7014:7017   */\n      0xa0\n        /* \"#utility.yul\":6993:7012   */\n      0x84\n      dup3\n      add\n        /* \"#utility.yul\":6986:7018   */\n      mstore\n        /* \"#utility.yul\":7055:7057   */\n      0x1a\n        /* \"#utility.yul\":7034:7053   */\n      0xa4\n      dup3\n      add\n        /* \"#utility.yul\":7027:7058   */\n      mstore\n        /* \"#utility.yul\":7095:7123   */\n      0x52657475726e696e6720796f7572206f6c64207069636b617865000000000000\n        /* \"#utility.yul\":7074:7093   */\n      0xc4\n      dup3\n      add\n        /* \"#utility.yul\":7067:7124   */\n      mstore\n        /* \"Mining.sol\":2172:2192  pickaxeNftCollection */\n      immutable(\"0x7f8b6b088b6d74c2852fc86c796dca07b44eed6fb3daf5e6b59f7c364db14528\")\n      sub(shl(0xa0, 0x01), 0x01)\n        /* \"Mining.sol\":2172:2209  pickaxeNftCollection.safeTransferFrom */\n      and\n      swap1\n      0xf242432a\n      swap1\n        /* \"#utility.yul\":7141:7160   */\n      0xe4\n      add\n        /* \"Mining.sol\":2172:2402  pickaxeNftCollection.safeTransferFrom(... */\n      0x00\n      mload(0x40)\n      dup1\n      dup4\n      sub\n      dup2\n      0x00\n      dup8\n      dup1\n      extcodesize\n      iszero\n      dup1\n      iszero\n      tag_122\n      jumpi\n      0x00\n      dup1\n      revert\n    tag_122:\n      pop\n      gas\n      call\n      iszero\n      dup1\n      iszero\n      tag_124\n      jumpi\n      returndatasize\n      0x00\n      dup1\n      returndatacopy\n      revert(0x00, returndatasize)\n    tag_124:\n      pop\n      pop\n      pop\n      pop\n        /* \"Mining.sol\":2075:2414  if (playerPickaxe[msg.sender].isData) {... */\n    tag_120:\n        /* \"Mining.sol\":2493:2507  uint256 reward */\n      0x00\n        /* \"Mining.sol\":2510:2538  calculateRewards(msg.sender) */\n      tag_125\n        /* \"Mining.sol\":2527:2537  msg.sender */\n      caller\n        /* \"Mining.sol\":2510:2526  calculateRewards */\n      tag_35\n        /* \"Mining.sol\":2510:2538  calculateRewards(msg.sender) */\n      jump\t// in\n    tag_125:\n        /* \"Mining.sol\":2549:2590  rewardsToken.transfer(msg.sender, reward) */\n      mload(0x40)\n      shl(0xe0, 0xa9059cbb)\n      dup2\n      mstore\n        /* \"Mining.sol\":2571:2581  msg.sender */\n      caller\n        /* \"Mining.sol\":2549:2590  rewardsToken.transfer(msg.sender, reward) */\n      0x04\n      dup3\n      add\n        /* \"#utility.yul\":6031:6105   */\n      mstore\n        /* \"#utility.yul\":6121:6139   */\n      0x24\n      dup2\n      add\n        /* \"#utility.yul\":6114:6148   */\n      dup3\n      swap1\n      mstore\n        /* \"Mining.sol\":2493:2538  uint256 reward = calculateRewards(msg.sender) */\n      swap1\n      swap2\n      pop\n        /* \"Mining.sol\":2549:2561  rewardsToken */\n      immutable(\"0x1d3be50b2bb17407dd170f1d5da128d1def30c6b1598d6a629e79b4775265526\")\n      sub(shl(0xa0, 0x01), 0x01)\n        /* \"Mining.sol\":2549:2570  rewardsToken.transfer */\n      and\n      swap1\n      0xa9059cbb\n      swap1\n        /* \"#utility.yul\":6004:6022   */\n      0x44\n      add\n        /* \"Mining.sol\":2549:2590  rewardsToken.transfer(msg.sender, reward) */\n      0x20\n      mload(0x40)\n      dup1\n      dup4\n      sub\n      dup2\n      0x00\n      dup8\n      gas\n      call\n      iszero\n      dup1\n      iszero\n      tag_128\n      jumpi\n      returndatasize\n      0x00\n      dup1\n      returndatacopy\n      revert(0x00, returndatasize)\n    tag_128:\n      pop\n      pop\n      pop\n      pop\n      mload(0x40)\n      returndatasize\n      not(0x1f)\n      0x1f\n      dup3\n      add\n      and\n      dup3\n      add\n      dup1\n      0x40\n      mstore\n      pop\n      dup2\n      add\n      swap1\n      tag_129\n      swap2\n      swap1\n      tag_82\n      jump\t// in\n    tag_129:\n      pop\n        /* \"Mining.sol\":2652:2829  pickaxeNftCollection.safeTransferFrom(... */\n      mload(0x40)\n      shl(0xe1, 0x79212195)\n      dup2\n      mstore\n        /* \"Mining.sol\":2704:2714  msg.sender */\n      caller\n        /* \"Mining.sol\":2652:2829  pickaxeNftCollection.safeTransferFrom(... */\n      0x04\n      dup3\n      add\n        /* \"#utility.yul\":8724:8758   */\n      mstore\n        /* \"Mining.sol\":2737:2741  this */\n      address\n        /* \"#utility.yul\":8774:8792   */\n      0x24\n      dup3\n      add\n        /* \"#utility.yul\":8767:8810   */\n      mstore\n        /* \"#utility.yul\":8826:8844   */\n      0x44\n      dup2\n      add\n        /* \"#utility.yul\":8819:8853   */\n      dup4\n      swap1\n      mstore\n        /* \"Mining.sol\":2780:2781  1 */\n      0x01\n        /* \"#utility.yul\":8869:8887   */\n      0x64\n      dup3\n      add\n        /* \"#utility.yul\":8862:8896   */\n      mstore\n        /* \"#utility.yul\":8933:8936   */\n      0xa0\n        /* \"#utility.yul\":8912:8931   */\n      0x84\n      dup3\n      add\n        /* \"#utility.yul\":8905:8937   */\n      mstore\n        /* \"#utility.yul\":8974:8976   */\n      0x14\n        /* \"#utility.yul\":8953:8972   */\n      0xa4\n      dup3\n      add\n        /* \"#utility.yul\":8946:8977   */\n      mstore\n        /* \"#utility.yul\":9014:9036   */\n      0x5374616b696e6720796f7572207069636b617865000000000000000000000000\n        /* \"#utility.yul\":8993:9012   */\n      0xc4\n      dup3\n      add\n        /* \"#utility.yul\":8986:9037   */\n      mstore\n        /* \"Mining.sol\":2652:2672  pickaxeNftCollection */\n      immutable(\"0x7f8b6b088b6d74c2852fc86c796dca07b44eed6fb3daf5e6b59f7c364db14528\")\n      sub(shl(0xa0, 0x01), 0x01)\n        /* \"Mining.sol\":2652:2689  pickaxeNftCollection.safeTransferFrom */\n      and\n      swap1\n      0xf242432a\n      swap1\n        /* \"#utility.yul\":9054:9073   */\n      0xe4\n      add\n        /* \"Mining.sol\":2652:2829  pickaxeNftCollection.safeTransferFrom(... */\n      0x00\n      mload(0x40)\n      dup1\n      dup4\n      sub\n      dup2\n      0x00\n      dup8\n      dup1\n      extcodesize\n      iszero\n      dup1\n      iszero\n      tag_132\n      jumpi\n      0x00\n      dup1\n      revert\n    tag_132:\n      pop\n      gas\n      call\n      iszero\n      dup1\n      iszero\n      tag_134\n      jumpi\n      returndatasize\n      0x00\n      dup1\n      returndatacopy\n      revert(0x00, returndatasize)\n    tag_134:\n      pop\n      pop\n        /* \"Mining.sol\":2901:2911  msg.sender */\n      caller\n        /* \"Mining.sol\":2887:2912  playerPickaxe[msg.sender] */\n      0x00\n      swap1\n      dup2\n      mstore\n        /* \"Mining.sol\":2887:2900  playerPickaxe */\n      0x01\n        /* \"Mining.sol\":2887:2912  playerPickaxe[msg.sender] */\n      0x20\n      dup2\n      dup2\n      mstore\n      0x40\n      dup1\n      dup5\n      keccak256\n        /* \"Mining.sol\":2887:2918  playerPickaxe[msg.sender].value */\n      dup1\n      dup5\n      add\n        /* \"Mining.sol\":2887:2929  playerPickaxe[msg.sender].value = _tokenId */\n      dup10\n      swap1\n      sstore\n        /* \"Mining.sol\":2940:2979  playerPickaxe[msg.sender].isData = true */\n      dup1\n      sload\n      not(0xff)\n      swap1\n      dup2\n      and\n      dup6\n      or\n      swap1\n      swap2\n      sstore\n        /* \"Mining.sol\":3040:3056  playerLastUpdate */\n      0x02\n        /* \"Mining.sol\":3040:3068  playerLastUpdate[msg.sender] */\n      swap1\n      swap3\n      mstore\n      swap1\n      swap3\n      keccak256\n        /* \"Mining.sol\":3040:3082  playerLastUpdate[msg.sender].isData = true */\n      dup1\n      sload\n      swap1\n      swap3\n      and\n      dup2\n      or\n      dup3\n      sstore\n        /* \"Mining.sol\":3130:3145  block.timestamp */\n      timestamp\n        /* \"Mining.sol\":3093:3127  playerLastUpdate[msg.sender].value */\n      swap2\n      add\n        /* \"Mining.sol\":3093:3145  playerLastUpdate[msg.sender].value = block.timestamp */\n      sstore\n      pop\n        /* \"@openzeppelin/contracts/security/ReentrancyGuard.sol\":2303:2323   */\n      tag_135\n      swap2\n      pop\n        /* \"@openzeppelin/contracts/security/ReentrancyGuard.sol\":2303:2321   */\n      tag_89\n      swap1\n      pop\n        /* \"@openzeppelin/contracts/security/ReentrancyGuard.sol\":2303:2323   */\n      jump\t// in\n    tag_135:\n        /* \"Mining.sol\":1677:3153  function stake(uint256 _tokenId) external nonReentrant {... */\n      pop\n      jump\t// out\n        /* \"@openzeppelin/contracts/security/ReentrancyGuard.sol\":2336:2623   */\n    tag_71:\n        /* \"@openzeppelin/contracts/security/ReentrancyGuard.sol\":1759:1760   */\n      0x02\n        /* \"@openzeppelin/contracts/security/ReentrancyGuard.sol\":2468:2475   */\n      sload(0x00)\n        /* \"@openzeppelin/contracts/security/ReentrancyGuard.sol\":2468:2487   */\n      sub\n        /* \"@openzeppelin/contracts/security/ReentrancyGuard.sol\":2460:2523   */\n      tag_140\n      jumpi\n      mload(0x40)\n      shl(0xe5, 0x461bcd)\n      dup2\n      mstore\n        /* \"#utility.yul\":9286:9288   */\n      0x20\n        /* \"@openzeppelin/contracts/security/ReentrancyGuard.sol\":2460:2523   */\n      0x04\n      dup3\n      add\n        /* \"#utility.yul\":9268:9289   */\n      mstore\n        /* \"#utility.yul\":9325:9327   */\n      0x1f\n        /* \"#utility.yul\":9305:9323   */\n      0x24\n      dup3\n      add\n        /* \"#utility.yul\":9298:9328   */\n      mstore\n        /* \"#utility.yul\":9364:9397   */\n      0x5265656e7472616e637947756172643a207265656e7472616e742063616c6c00\n        /* \"#utility.yul\":9344:9362   */\n      0x44\n      dup3\n      add\n        /* \"#utility.yul\":9337:9398   */\n      mstore\n        /* \"#utility.yul\":9415:9433   */\n      0x64\n      add\n        /* \"@openzeppelin/contracts/security/ReentrancyGuard.sol\":2460:2523   */\n      tag_74\n        /* \"#utility.yul\":9084:9439   */\n      jump\n        /* \"@openzeppelin/contracts/security/ReentrancyGuard.sol\":2460:2523   */\n    tag_140:\n        /* \"@openzeppelin/contracts/security/ReentrancyGuard.sol\":1759:1760   */\n      0x02\n        /* \"@openzeppelin/contracts/security/ReentrancyGuard.sol\":2598:2605   */\n      0x00\n        /* \"@openzeppelin/contracts/security/ReentrancyGuard.sol\":2598:2616   */\n      sstore\n        /* \"@openzeppelin/contracts/security/ReentrancyGuard.sol\":2336:2623   */\n      jump\t// out\n        /* \"@openzeppelin/contracts/security/ReentrancyGuard.sol\":2629:2838   */\n    tag_89:\n        /* \"@openzeppelin/contracts/security/ReentrancyGuard.sol\":1716:1717   */\n      0x01\n        /* \"@openzeppelin/contracts/security/ReentrancyGuard.sol\":2809:2816   */\n      0x00\n        /* \"@openzeppelin/contracts/security/ReentrancyGuard.sol\":2809:2831   */\n      sstore\n        /* \"@openzeppelin/contracts/security/ReentrancyGuard.sol\":2629:2838   */\n      jump\t// out\n        /* \"#utility.yul\":14:300   */\n    tag_19:\n        /* \"#utility.yul\":72:78   */\n      0x00\n        /* \"#utility.yul\":125:127   */\n      0x20\n        /* \"#utility.yul\":113:122   */\n      dup3\n        /* \"#utility.yul\":104:111   */\n      dup5\n        /* \"#utility.yul\":100:123   */\n      sub\n        /* \"#utility.yul\":96:128   */\n      slt\n        /* \"#utility.yul\":93:145   */\n      iszero\n      tag_152\n      jumpi\n        /* \"#utility.yul\":141:142   */\n      0x00\n        /* \"#utility.yul\":138:139   */\n      dup1\n        /* \"#utility.yul\":131:143   */\n      revert\n        /* \"#utility.yul\":93:145   */\n    tag_152:\n        /* \"#utility.yul\":167:190   */\n      dup2\n      calldataload\n      not(sub(shl(0xe0, 0x01), 0x01))\n        /* \"#utility.yul\":219:251   */\n      dup2\n      and\n        /* \"#utility.yul\":209:252   */\n      dup2\n      eq\n        /* \"#utility.yul\":199:270   */\n      tag_153\n      jumpi\n        /* \"#utility.yul\":266:267   */\n      0x00\n        /* \"#utility.yul\":263:264   */\n      dup1\n        /* \"#utility.yul\":256:268   */\n      revert\n        /* \"#utility.yul\":199:270   */\n    tag_153:\n        /* \"#utility.yul\":289:294   */\n      swap4\n        /* \"#utility.yul\":14:300   */\n      swap3\n      pop\n      pop\n      pop\n      jump\t// out\n        /* \"#utility.yul\":497:693   */\n    tag_144:\n        /* \"#utility.yul\":565:585   */\n      dup1\n      calldataload\n      sub(shl(0xa0, 0x01), 0x01)\n        /* \"#utility.yul\":614:668   */\n      dup2\n      and\n        /* \"#utility.yul\":604:669   */\n      dup2\n      eq\n        /* \"#utility.yul\":594:687   */\n      tag_156\n      jumpi\n        /* \"#utility.yul\":683:684   */\n      0x00\n        /* \"#utility.yul\":680:681   */\n      dup1\n        /* \"#utility.yul\":673:685   */\n      revert\n        /* \"#utility.yul\":594:687   */\n    tag_156:\n        /* \"#utility.yul\":497:693   */\n      swap2\n      swap1\n      pop\n      jump\t// out\n        /* \"#utility.yul\":698:884   */\n    tag_25:\n        /* \"#utility.yul\":757:763   */\n      0x00\n        /* \"#utility.yul\":810:812   */\n      0x20\n        /* \"#utility.yul\":798:807   */\n      dup3\n        /* \"#utility.yul\":789:796   */\n      dup5\n        /* \"#utility.yul\":785:808   */\n      sub\n        /* \"#utility.yul\":781:813   */\n      slt\n        /* \"#utility.yul\":778:830   */\n      iszero\n      tag_158\n      jumpi\n        /* \"#utility.yul\":826:827   */\n      0x00\n        /* \"#utility.yul\":823:824   */\n      dup1\n        /* \"#utility.yul\":816:828   */\n      revert\n        /* \"#utility.yul\":778:830   */\n    tag_158:\n        /* \"#utility.yul\":849:878   */\n      tag_153\n        /* \"#utility.yul\":868:877   */\n      dup3\n        /* \"#utility.yul\":849:878   */\n      tag_144\n      jump\t// in\n        /* \"#utility.yul\":1334:1514   */\n    tag_44:\n        /* \"#utility.yul\":1393:1399   */\n      0x00\n        /* \"#utility.yul\":1446:1448   */\n      0x20\n        /* \"#utility.yul\":1434:1443   */\n      dup3\n        /* \"#utility.yul\":1425:1432   */\n      dup5\n        /* \"#utility.yul\":1421:1444   */\n      sub\n        /* \"#utility.yul\":1417:1449   */\n      slt\n        /* \"#utility.yul\":1414:1466   */\n      iszero\n      tag_163\n      jumpi\n        /* \"#utility.yul\":1462:1463   */\n      0x00\n        /* \"#utility.yul\":1459:1460   */\n      dup1\n        /* \"#utility.yul\":1452:1464   */\n      revert\n        /* \"#utility.yul\":1414:1466   */\n    tag_163:\n      pop\n        /* \"#utility.yul\":1485:1508   */\n      calldataload\n      swap2\n        /* \"#utility.yul\":1334:1514   */\n      swap1\n      pop\n      jump\t// out\n        /* \"#utility.yul\":1770:1897   */\n    tag_145:\n        /* \"#utility.yul\":1831:1841   */\n      0x4e487b71\n        /* \"#utility.yul\":1826:1829   */\n      0xe0\n        /* \"#utility.yul\":1822:1842   */\n      shl\n        /* \"#utility.yul\":1819:1820   */\n      0x00\n        /* \"#utility.yul\":1812:1843   */\n      mstore\n        /* \"#utility.yul\":1862:1866   */\n      0x41\n        /* \"#utility.yul\":1859:1860   */\n      0x04\n        /* \"#utility.yul\":1852:1867   */\n      mstore\n        /* \"#utility.yul\":1886:1890   */\n      0x24\n        /* \"#utility.yul\":1883:1884   */\n      0x00\n        /* \"#utility.yul\":1876:1891   */\n      revert\n        /* \"#utility.yul\":1902:2177   */\n    tag_146:\n        /* \"#utility.yul\":1973:1975   */\n      0x40\n        /* \"#utility.yul\":1967:1976   */\n      mload\n        /* \"#utility.yul\":2038:2040   */\n      0x1f\n        /* \"#utility.yul\":2019:2032   */\n      dup3\n      add\n      not(0x1f)\n        /* \"#utility.yul\":2015:2042   */\n      and\n        /* \"#utility.yul\":2003:2043   */\n      dup2\n      add\n        /* \"#utility.yul\":2073:2091   */\n      0xffffffffffffffff\n        /* \"#utility.yul\":2058:2092   */\n      dup2\n      gt\n        /* \"#utility.yul\":2094:2116   */\n      dup3\n      dup3\n      lt\n        /* \"#utility.yul\":2055:2117   */\n      or\n        /* \"#utility.yul\":2052:2140   */\n      iszero\n      tag_168\n      jumpi\n        /* \"#utility.yul\":2120:2138   */\n      tag_168\n      tag_145\n      jump\t// in\n    tag_168:\n        /* \"#utility.yul\":2156:2158   */\n      0x40\n        /* \"#utility.yul\":2149:2171   */\n      mstore\n        /* \"#utility.yul\":1902:2177   */\n      swap2\n      swap1\n      pop\n      jump\t// out\n        /* \"#utility.yul\":2182:2894   */\n    tag_147:\n        /* \"#utility.yul\":2236:2241   */\n      0x00\n        /* \"#utility.yul\":2289:2292   */\n      dup3\n        /* \"#utility.yul\":2282:2286   */\n      0x1f\n        /* \"#utility.yul\":2274:2280   */\n      dup4\n        /* \"#utility.yul\":2270:2287   */\n      add\n        /* \"#utility.yul\":2266:2293   */\n      slt\n        /* \"#utility.yul\":2256:2311   */\n      tag_170\n      jumpi\n        /* \"#utility.yul\":2307:2308   */\n      0x00\n        /* \"#utility.yul\":2304:2305   */\n      dup1\n        /* \"#utility.yul\":2297:2309   */\n      revert\n        /* \"#utility.yul\":2256:2311   */\n    tag_170:\n        /* \"#utility.yul\":2343:2349   */\n      dup2\n        /* \"#utility.yul\":2330:2350   */\n      calldataload\n        /* \"#utility.yul\":2369:2373   */\n      0x20\n        /* \"#utility.yul\":2392:2410   */\n      0xffffffffffffffff\n        /* \"#utility.yul\":2388:2390   */\n      dup3\n        /* \"#utility.yul\":2385:2411   */\n      gt\n        /* \"#utility.yul\":2382:2434   */\n      iszero\n      tag_172\n      jumpi\n        /* \"#utility.yul\":2414:2432   */\n      tag_172\n      tag_145\n      jump\t// in\n    tag_172:\n        /* \"#utility.yul\":2460:2462   */\n      dup2\n        /* \"#utility.yul\":2457:2458   */\n      0x05\n        /* \"#utility.yul\":2453:2463   */\n      shl\n        /* \"#utility.yul\":2483:2511   */\n      tag_173\n        /* \"#utility.yul\":2507:2509   */\n      dup3\n        /* \"#utility.yul\":2503:2505   */\n      dup3\n        /* \"#utility.yul\":2499:2510   */\n      add\n        /* \"#utility.yul\":2483:2511   */\n      tag_146\n      jump\t// in\n    tag_173:\n        /* \"#utility.yul\":2545:2560   */\n      swap3\n      dup4\n      mstore\n        /* \"#utility.yul\":2615:2630   */\n      dup5\n      dup2\n      add\n        /* \"#utility.yul\":2611:2635   */\n      dup3\n      add\n      swap3\n        /* \"#utility.yul\":2576:2588   */\n      dup3\n      dup2\n      add\n      swap1\n        /* \"#utility.yul\":2647:2662   */\n      dup8\n      dup6\n      gt\n        /* \"#utility.yul\":2644:2679   */\n      iszero\n      tag_174\n      jumpi\n        /* \"#utility.yul\":2675:2676   */\n      0x00\n        /* \"#utility.yul\":2672:2673   */\n      dup1\n        /* \"#utility.yul\":2665:2677   */\n      revert\n        /* \"#utility.yul\":2644:2679   */\n    tag_174:\n        /* \"#utility.yul\":2711:2713   */\n      dup4\n        /* \"#utility.yul\":2703:2709   */\n      dup8\n        /* \"#utility.yul\":2699:2714   */\n      add\n        /* \"#utility.yul\":2688:2714   */\n      swap3\n      pop\n        /* \"#utility.yul\":2723:2865   */\n    tag_175:\n        /* \"#utility.yul\":2739:2745   */\n      dup5\n        /* \"#utility.yul\":2734:2737   */\n      dup4\n        /* \"#utility.yul\":2731:2746   */\n      lt\n        /* \"#utility.yul\":2723:2865   */\n      iszero\n      tag_177\n      jumpi\n        /* \"#utility.yul\":2805:2822   */\n      dup3\n      calldataload\n        /* \"#utility.yul\":2793:2823   */\n      dup3\n      mstore\n        /* \"#utility.yul\":2756:2768   */\n      swap2\n      dup4\n      add\n      swap2\n        /* \"#utility.yul\":2843:2855   */\n      swap1\n      dup4\n      add\n      swap1\n        /* \"#utility.yul\":2723:2865   */\n      jump(tag_175)\n    tag_177:\n        /* \"#utility.yul\":2883:2888   */\n      swap8\n        /* \"#utility.yul\":2182:2894   */\n      swap7\n      pop\n      pop\n      pop\n      pop\n      pop\n      pop\n      pop\n      jump\t// out\n        /* \"#utility.yul\":2899:3429   */\n    tag_148:\n        /* \"#utility.yul\":2941:2946   */\n      0x00\n        /* \"#utility.yul\":2994:2997   */\n      dup3\n        /* \"#utility.yul\":2987:2991   */\n      0x1f\n        /* \"#utility.yul\":2979:2985   */\n      dup4\n        /* \"#utility.yul\":2975:2992   */\n      add\n        /* \"#utility.yul\":2971:2998   */\n      slt\n        /* \"#utility.yul\":2961:3016   */\n      tag_179\n      jumpi\n        /* \"#utility.yul\":3012:3013   */\n      0x00\n        /* \"#utility.yul\":3009:3010   */\n      dup1\n        /* \"#utility.yul\":3002:3014   */\n      revert\n        /* \"#utility.yul\":2961:3016   */\n    tag_179:\n        /* \"#utility.yul\":3048:3054   */\n      dup2\n        /* \"#utility.yul\":3035:3055   */\n      calldataload\n        /* \"#utility.yul\":3074:3092   */\n      0xffffffffffffffff\n        /* \"#utility.yul\":3070:3072   */\n      dup2\n        /* \"#utility.yul\":3067:3093   */\n      gt\n        /* \"#utility.yul\":3064:3116   */\n      iszero\n      tag_181\n      jumpi\n        /* \"#utility.yul\":3096:3114   */\n      tag_181\n      tag_145\n      jump\t// in\n    tag_181:\n        /* \"#utility.yul\":3140:3195   */\n      tag_182\n        /* \"#utility.yul\":3183:3185   */\n      0x1f\n        /* \"#utility.yul\":3164:3177   */\n      dup3\n      add\n      not(0x1f)\n        /* \"#utility.yul\":3160:3187   */\n      and\n        /* \"#utility.yul\":3189:3193   */\n      0x20\n        /* \"#utility.yul\":3156:3194   */\n      add\n        /* \"#utility.yul\":3140:3195   */\n      tag_146\n      jump\t// in\n    tag_182:\n        /* \"#utility.yul\":3220:3222   */\n      dup2\n        /* \"#utility.yul\":3211:3218   */\n      dup2\n        /* \"#utility.yul\":3204:3223   */\n      mstore\n        /* \"#utility.yul\":3266:3269   */\n      dup5\n        /* \"#utility.yul\":3259:3263   */\n      0x20\n        /* \"#utility.yul\":3254:3256   */\n      dup4\n        /* \"#utility.yul\":3246:3252   */\n      dup7\n        /* \"#utility.yul\":3242:3257   */\n      add\n        /* \"#utility.yul\":3238:3264   */\n      add\n        /* \"#utility.yul\":3235:3270   */\n      gt\n        /* \"#utility.yul\":3232:3287   */\n      iszero\n      tag_183\n      jumpi\n        /* \"#utility.yul\":3283:3284   */\n      0x00\n        /* \"#utility.yul\":3280:3281   */\n      dup1\n        /* \"#utility.yul\":3273:3285   */\n      revert\n        /* \"#utility.yul\":3232:3287   */\n    tag_183:\n        /* \"#utility.yul\":3348:3350   */\n      dup2\n        /* \"#utility.yul\":3341:3345   */\n      0x20\n        /* \"#utility.yul\":3333:3339   */\n      dup6\n        /* \"#utility.yul\":3329:3346   */\n      add\n        /* \"#utility.yul\":3322:3326   */\n      0x20\n        /* \"#utility.yul\":3313:3320   */\n      dup4\n        /* \"#utility.yul\":3309:3327   */\n      add\n        /* \"#utility.yul\":3296:3351   */\n      calldatacopy\n        /* \"#utility.yul\":3396:3397   */\n      0x00\n        /* \"#utility.yul\":3371:3387   */\n      swap2\n      dup2\n      add\n        /* \"#utility.yul\":3389:3393   */\n      0x20\n        /* \"#utility.yul\":3367:3394   */\n      add\n        /* \"#utility.yul\":3360:3398   */\n      swap2\n      swap1\n      swap2\n      mstore\n        /* \"#utility.yul\":3375:3382   */\n      swap4\n        /* \"#utility.yul\":2899:3429   */\n      swap3\n      pop\n      pop\n      pop\n      jump\t// out\n        /* \"#utility.yul\":3434:4377   */\n    tag_52:\n        /* \"#utility.yul\":3588:3594   */\n      0x00\n        /* \"#utility.yul\":3596:3602   */\n      dup1\n        /* \"#utility.yul\":3604:3610   */\n      0x00\n        /* \"#utility.yul\":3612:3618   */\n      dup1\n        /* \"#utility.yul\":3620:3626   */\n      0x00\n        /* \"#utility.yul\":3673:3676   */\n      0xa0\n        /* \"#utility.yul\":3661:3670   */\n      dup7\n        /* \"#utility.yul\":3652:3659   */\n      dup9\n        /* \"#utility.yul\":3648:3671   */\n      sub\n        /* \"#utility.yul\":3644:3677   */\n      slt\n        /* \"#utility.yul\":3641:3694   */\n      iszero\n      tag_185\n      jumpi\n        /* \"#utility.yul\":3690:3691   */\n      0x00\n        /* \"#utility.yul\":3687:3688   */\n      dup1\n        /* \"#utility.yul\":3680:3692   */\n      revert\n        /* \"#utility.yul\":3641:3694   */\n    tag_185:\n        /* \"#utility.yul\":3713:3742   */\n      tag_186\n        /* \"#utility.yul\":3732:3741   */\n      dup7\n        /* \"#utility.yul\":3713:3742   */\n      tag_144\n      jump\t// in\n    tag_186:\n        /* \"#utility.yul\":3703:3742   */\n      swap5\n      pop\n        /* \"#utility.yul\":3761:3799   */\n      tag_187\n        /* \"#utility.yul\":3795:3797   */\n      0x20\n        /* \"#utility.yul\":3784:3793   */\n      dup8\n        /* \"#utility.yul\":3780:3798   */\n      add\n        /* \"#utility.yul\":3761:3799   */\n      tag_144\n      jump\t// in\n    tag_187:\n        /* \"#utility.yul\":3751:3799   */\n      swap4\n      pop\n        /* \"#utility.yul\":3850:3852   */\n      0x40\n        /* \"#utility.yul\":3839:3848   */\n      dup7\n        /* \"#utility.yul\":3835:3853   */\n      add\n        /* \"#utility.yul\":3822:3854   */\n      calldataload\n        /* \"#utility.yul\":3873:3891   */\n      0xffffffffffffffff\n        /* \"#utility.yul\":3914:3916   */\n      dup1\n        /* \"#utility.yul\":3906:3912   */\n      dup3\n        /* \"#utility.yul\":3903:3917   */\n      gt\n        /* \"#utility.yul\":3900:3934   */\n      iszero\n      tag_188\n      jumpi\n        /* \"#utility.yul\":3930:3931   */\n      0x00\n        /* \"#utility.yul\":3927:3928   */\n      dup1\n        /* \"#utility.yul\":3920:3932   */\n      revert\n        /* \"#utility.yul\":3900:3934   */\n    tag_188:\n        /* \"#utility.yul\":3953:4014   */\n      tag_189\n        /* \"#utility.yul\":4006:4013   */\n      dup10\n        /* \"#utility.yul\":3997:4003   */\n      dup4\n        /* \"#utility.yul\":3986:3995   */\n      dup11\n        /* \"#utility.yul\":3982:4004   */\n      add\n        /* \"#utility.yul\":3953:4014   */\n      tag_147\n      jump\t// in\n    tag_189:\n        /* \"#utility.yul\":3943:4014   */\n      swap5\n      pop\n        /* \"#utility.yul\":4067:4069   */\n      0x60\n        /* \"#utility.yul\":4056:4065   */\n      dup9\n        /* \"#utility.yul\":4052:4070   */\n      add\n        /* \"#utility.yul\":4039:4071   */\n      calldataload\n        /* \"#utility.yul\":4023:4071   */\n      swap2\n      pop\n        /* \"#utility.yul\":4096:4098   */\n      dup1\n        /* \"#utility.yul\":4086:4094   */\n      dup3\n        /* \"#utility.yul\":4083:4099   */\n      gt\n        /* \"#utility.yul\":4080:4116   */\n      iszero\n      tag_190\n      jumpi\n        /* \"#utility.yul\":4112:4113   */\n      0x00\n        /* \"#utility.yul\":4109:4110   */\n      dup1\n        /* \"#utility.yul\":4102:4114   */\n      revert\n        /* \"#utility.yul\":4080:4116   */\n    tag_190:\n        /* \"#utility.yul\":4135:4198   */\n      tag_191\n        /* \"#utility.yul\":4190:4197   */\n      dup10\n        /* \"#utility.yul\":4179:4187   */\n      dup4\n        /* \"#utility.yul\":4168:4177   */\n      dup11\n        /* \"#utility.yul\":4164:4188   */\n      add\n        /* \"#utility.yul\":4135:4198   */\n      tag_147\n      jump\t// in\n    tag_191:\n        /* \"#utility.yul\":4125:4198   */\n      swap4\n      pop\n        /* \"#utility.yul\":4251:4254   */\n      0x80\n        /* \"#utility.yul\":4240:4249   */\n      dup9\n        /* \"#utility.yul\":4236:4255   */\n      add\n        /* \"#utility.yul\":4223:4256   */\n      calldataload\n        /* \"#utility.yul\":4207:4256   */\n      swap2\n      pop\n        /* \"#utility.yul\":4281:4283   */\n      dup1\n        /* \"#utility.yul\":4271:4279   */\n      dup3\n        /* \"#utility.yul\":4268:4284   */\n      gt\n        /* \"#utility.yul\":4265:4301   */\n      iszero\n      tag_192\n      jumpi\n        /* \"#utility.yul\":4297:4298   */\n      0x00\n        /* \"#utility.yul\":4294:4295   */\n      dup1\n        /* \"#utility.yul\":4287:4299   */\n      revert\n        /* \"#utility.yul\":4265:4301   */\n    tag_192:\n      pop\n        /* \"#utility.yul\":4320:4371   */\n      tag_193\n        /* \"#utility.yul\":4363:4370   */\n      dup9\n        /* \"#utility.yul\":4352:4360   */\n      dup3\n        /* \"#utility.yul\":4341:4350   */\n      dup10\n        /* \"#utility.yul\":4337:4361   */\n      add\n        /* \"#utility.yul\":4320:4371   */\n      tag_148\n      jump\t// in\n    tag_193:\n        /* \"#utility.yul\":4310:4371   */\n      swap2\n      pop\n      pop\n        /* \"#utility.yul\":3434:4377   */\n      swap3\n      swap6\n      pop\n      swap3\n      swap6\n      swap1\n      swap4\n      pop\n      jump\t// out\n        /* \"#utility.yul\":4839:5445   */\n    tag_62:\n        /* \"#utility.yul\":4943:4949   */\n      0x00\n        /* \"#utility.yul\":4951:4957   */\n      dup1\n        /* \"#utility.yul\":4959:4965   */\n      0x00\n        /* \"#utility.yul\":4967:4973   */\n      dup1\n        /* \"#utility.yul\":4975:4981   */\n      0x00\n        /* \"#utility.yul\":5028:5031   */\n      0xa0\n        /* \"#utility.yul\":5016:5025   */\n      dup7\n        /* \"#utility.yul\":5007:5014   */\n      dup9\n        /* \"#utility.yul\":5003:5026   */\n      sub\n        /* \"#utility.yul\":4999:5032   */\n      slt\n        /* \"#utility.yul\":4996:5049   */\n      iszero\n      tag_197\n      jumpi\n        /* \"#utility.yul\":5045:5046   */\n      0x00\n        /* \"#utility.yul\":5042:5043   */\n      dup1\n        /* \"#utility.yul\":5035:5047   */\n      revert\n        /* \"#utility.yul\":4996:5049   */\n    tag_197:\n        /* \"#utility.yul\":5068:5097   */\n      tag_198\n        /* \"#utility.yul\":5087:5096   */\n      dup7\n        /* \"#utility.yul\":5068:5097   */\n      tag_144\n      jump\t// in\n    tag_198:\n        /* \"#utility.yul\":5058:5097   */\n      swap5\n      pop\n        /* \"#utility.yul\":5116:5154   */\n      tag_199\n        /* \"#utility.yul\":5150:5152   */\n      0x20\n        /* \"#utility.yul\":5139:5148   */\n      dup8\n        /* \"#utility.yul\":5135:5153   */\n      add\n        /* \"#utility.yul\":5116:5154   */\n      tag_144\n      jump\t// in\n    tag_199:\n        /* \"#utility.yul\":5106:5154   */\n      swap4\n      pop\n        /* \"#utility.yul\":5201:5203   */\n      0x40\n        /* \"#utility.yul\":5190:5199   */\n      dup7\n        /* \"#utility.yul\":5186:5204   */\n      add\n        /* \"#utility.yul\":5173:5205   */\n      calldataload\n        /* \"#utility.yul\":5163:5205   */\n      swap3\n      pop\n        /* \"#utility.yul\":5252:5254   */\n      0x60\n        /* \"#utility.yul\":5241:5250   */\n      dup7\n        /* \"#utility.yul\":5237:5255   */\n      add\n        /* \"#utility.yul\":5224:5256   */\n      calldataload\n        /* \"#utility.yul\":5214:5256   */\n      swap2\n      pop\n        /* \"#utility.yul\":5307:5310   */\n      0x80\n        /* \"#utility.yul\":5296:5305   */\n      dup7\n        /* \"#utility.yul\":5292:5311   */\n      add\n        /* \"#utility.yul\":5279:5312   */\n      calldataload\n        /* \"#utility.yul\":5335:5353   */\n      0xffffffffffffffff\n        /* \"#utility.yul\":5327:5333   */\n      dup2\n        /* \"#utility.yul\":5324:5354   */\n      gt\n        /* \"#utility.yul\":5321:5371   */\n      iszero\n      tag_200\n      jumpi\n        /* \"#utility.yul\":5367:5368   */\n      0x00\n        /* \"#utility.yul\":5364:5365   */\n      dup1\n        /* \"#utility.yul\":5357:5369   */\n      revert\n        /* \"#utility.yul\":5321:5371   */\n    tag_200:\n        /* \"#utility.yul\":5390:5439   */\n      tag_193\n        /* \"#utility.yul\":5431:5438   */\n      dup9\n        /* \"#utility.yul\":5422:5428   */\n      dup3\n        /* \"#utility.yul\":5411:5420   */\n      dup10\n        /* \"#utility.yul\":5407:5429   */\n      add\n        /* \"#utility.yul\":5390:5439   */\n      tag_148\n      jump\t// in\n        /* \"#utility.yul\":6159:6436   */\n    tag_82:\n        /* \"#utility.yul\":6226:6232   */\n      0x00\n        /* \"#utility.yul\":6279:6281   */\n      0x20\n        /* \"#utility.yul\":6267:6276   */\n      dup3\n        /* \"#utility.yul\":6258:6265   */\n      dup5\n        /* \"#utility.yul\":6254:6277   */\n      sub\n        /* \"#utility.yul\":6250:6282   */\n      slt\n        /* \"#utility.yul\":6247:6299   */\n      iszero\n      tag_205\n      jumpi\n        /* \"#utility.yul\":6295:6296   */\n      0x00\n        /* \"#utility.yul\":6292:6293   */\n      dup1\n        /* \"#utility.yul\":6285:6297   */\n      revert\n        /* \"#utility.yul\":6247:6299   */\n    tag_205:\n        /* \"#utility.yul\":6327:6336   */\n      dup2\n        /* \"#utility.yul\":6321:6337   */\n      mload\n        /* \"#utility.yul\":6380:6385   */\n      dup1\n        /* \"#utility.yul\":6373:6386   */\n      iszero\n        /* \"#utility.yul\":6366:6387   */\n      iszero\n        /* \"#utility.yul\":6359:6364   */\n      dup2\n        /* \"#utility.yul\":6356:6388   */\n      eq\n        /* \"#utility.yul\":6346:6406   */\n      tag_153\n      jumpi\n        /* \"#utility.yul\":6402:6403   */\n      0x00\n        /* \"#utility.yul\":6399:6400   */\n      dup1\n        /* \"#utility.yul\":6392:6404   */\n      revert\n        /* \"#utility.yul\":7171:7298   */\n    tag_149:\n        /* \"#utility.yul\":7232:7242   */\n      0x4e487b71\n        /* \"#utility.yul\":7227:7230   */\n      0xe0\n        /* \"#utility.yul\":7223:7243   */\n      shl\n        /* \"#utility.yul\":7220:7221   */\n      0x00\n        /* \"#utility.yul\":7213:7244   */\n      mstore\n        /* \"#utility.yul\":7263:7267   */\n      0x11\n        /* \"#utility.yul\":7260:7261   */\n      0x04\n        /* \"#utility.yul\":7253:7268   */\n      mstore\n        /* \"#utility.yul\":7287:7291   */\n      0x24\n        /* \"#utility.yul\":7284:7285   */\n      0x00\n        /* \"#utility.yul\":7277:7292   */\n      revert\n        /* \"#utility.yul\":7303:7428   */\n    tag_103:\n        /* \"#utility.yul\":7343:7347   */\n      0x00\n        /* \"#utility.yul\":7371:7372   */\n      dup3\n        /* \"#utility.yul\":7368:7369   */\n      dup3\n        /* \"#utility.yul\":7365:7373   */\n      lt\n        /* \"#utility.yul\":7362:7396   */\n      iszero\n      tag_211\n      jumpi\n        /* \"#utility.yul\":7376:7394   */\n      tag_211\n      tag_149\n      jump\t// in\n    tag_211:\n      pop\n        /* \"#utility.yul\":7413:7422   */\n      sub\n      swap1\n        /* \"#utility.yul\":7303:7428   */\n      jump\t// out\n        /* \"#utility.yul\":7433:7561   */\n    tag_105:\n        /* \"#utility.yul\":7473:7476   */\n      0x00\n        /* \"#utility.yul\":7504:7505   */\n      dup3\n        /* \"#utility.yul\":7500:7506   */\n      not\n        /* \"#utility.yul\":7497:7498   */\n      dup3\n        /* \"#utility.yul\":7494:7507   */\n      gt\n        /* \"#utility.yul\":7491:7530   */\n      iszero\n      tag_214\n      jumpi\n        /* \"#utility.yul\":7510:7528   */\n      tag_214\n      tag_149\n      jump\t// in\n    tag_214:\n      pop\n        /* \"#utility.yul\":7546:7555   */\n      add\n      swap1\n        /* \"#utility.yul\":7433:7561   */\n      jump\t// out\n        /* \"#utility.yul\":7566:7734   */\n    tag_107:\n        /* \"#utility.yul\":7606:7613   */\n      0x00\n        /* \"#utility.yul\":7672:7673   */\n      dup2\n        /* \"#utility.yul\":7668:7669   */\n      0x00\n        /* \"#utility.yul\":7664:7670   */\n      not\n        /* \"#utility.yul\":7660:7674   */\n      div\n        /* \"#utility.yul\":7657:7658   */\n      dup4\n        /* \"#utility.yul\":7654:7675   */\n      gt\n        /* \"#utility.yul\":7649:7650   */\n      dup3\n        /* \"#utility.yul\":7642:7651   */\n      iszero\n        /* \"#utility.yul\":7635:7652   */\n      iszero\n        /* \"#utility.yul\":7631:7676   */\n      and\n        /* \"#utility.yul\":7628:7699   */\n      iszero\n      tag_217\n      jumpi\n        /* \"#utility.yul\":7679:7697   */\n      tag_217\n      tag_149\n      jump\t// in\n    tag_217:\n      pop\n        /* \"#utility.yul\":7719:7728   */\n      mul\n      swap1\n        /* \"#utility.yul\":7566:7734   */\n      jump\t// out\n        /* \"#utility.yul\":7739:7923   */\n    tag_116:\n        /* \"#utility.yul\":7809:7815   */\n      0x00\n        /* \"#utility.yul\":7862:7864   */\n      0x20\n        /* \"#utility.yul\":7850:7859   */\n      dup3\n        /* \"#utility.yul\":7841:7848   */\n      dup5\n        /* \"#utility.yul\":7837:7860   */\n      sub\n        /* \"#utility.yul\":7833:7865   */\n      slt\n        /* \"#utility.yul\":7830:7882   */\n      iszero\n      tag_219\n      jumpi\n        /* \"#utility.yul\":7878:7879   */\n      0x00\n        /* \"#utility.yul\":7875:7876   */\n      dup1\n        /* \"#utility.yul\":7868:7880   */\n      revert\n        /* \"#utility.yul\":7830:7882   */\n    tag_219:\n      pop\n        /* \"#utility.yul\":7901:7917   */\n      mload\n      swap2\n        /* \"#utility.yul\":7739:7923   */\n      swap1\n      pop\n      jump\t// out\n\n    auxdata: 0xa2646970667358221220d2c453a8ef470d52b61ad1094ef3450bf523a8e20b2b62e23a009496676c4cb664736f6c634300080d0033\n}\n",
    "bytecode": {
      "linkReferences": {},
      "object": "60c060405234801561001057600080fd5b50604051610f10380380610f1083398101604081905261002f91610063565b60016000556001600160a01b039182166080521660a05261009d565b6001600160a01b038116811461006057600080fd5b50565b6000806040838503121561007657600080fd5b82516100818161004b565b60208401519092506100928161004b565b809150509250929050565b60805160a051610e1d6100f3600039600081816102290152818161035d0152818161051b01526108a20152600081816101b201528181610446015281816106a20152818161081301526109750152610e1d6000f3fe608060405234801561001057600080fd5b50600436106100c95760003560e01c80638194aa7711610081578063bc197c811161005b578063bc197c81146101ec578063d1af0c7d14610224578063f23a6e611461024b57600080fd5b80638194aa771461016d578063a694fc3a1461019a578063a9b00e25146101ad57600080fd5b80633ccfd60b116100b25780633ccfd60b1461013a5780634e71d92d1461014457806364ab86751461014c57600080fd5b806301ffc9a7146100ce57806306acb8c7146100f6575b600080fd5b6100e16100dc366004610a81565b61026a565b60405190151581526020015b60405180910390f35b610123610104366004610ace565b6001602081905260009182526040909120805491015460ff9091169082565b6040805192151583526020830191909152016100ed565b6101426102a1565b005b6101426104e9565b61015f61015a366004610ace565b6105bc565b6040519081526020016100ed565b61012361017b366004610ace565b6002602052600090815260409020805460019091015460ff9091169082565b6101426101a8366004610ae9565b61067c565b6101d47f000000000000000000000000000000000000000000000000000000000000000081565b6040516001600160a01b0390911681526020016100ed565b61020b6101fa366004610c39565b63bc197c8160e01b95945050505050565b6040516001600160e01b031990911681526020016100ed565b6101d47f000000000000000000000000000000000000000000000000000000000000000081565b61020b610259366004610ce3565b63f23a6e6160e01b95945050505050565b60006001600160e01b03198216630271189760e51b148061029b57506301ffc9a760e01b6001600160e01b03198316145b92915050565b6102a9610a21565b3360009081526001602052604090205460ff166103335760405162461bcd60e51b815260206004820152602660248201527f596f7520646f206e6f7420686176652061207069636b61786520746f2077697460448201527f68647261772e000000000000000000000000000000000000000000000000000060648201526084015b60405180910390fd5b600061033e336105bc565b60405163a9059cbb60e01b8152336004820152602481018290529091507f00000000000000000000000000000000000000000000000000000000000000006001600160a01b03169063a9059cbb906044016020604051808303816000875af11580156103ae573d6000803e3d6000fd5b505050506040513d601f19601f820116820180604052508101906103d29190610d48565b50336000818152600160208190526040918290208101549151637921219560e11b815230600482015260248101939093526044830191909152606482015260a06084820152601a60a48201527f52657475726e696e6720796f7572206f6c64207069636b61786500000000000060c48201527f00000000000000000000000000000000000000000000000000000000000000006001600160a01b03169063f242432a9060e401600060405180830381600087803b15801561049257600080fd5b505af11580156104a6573d6000803e3d6000fd5b5050336000908152600160208181526040808420805460ff19908116909155600290925290922080549092168117825542910155506104e79150610a7a9050565b565b6104f1610a21565b60006104fc336105bc565b60405163a9059cbb60e01b8152336004820152602481018290529091507f00000000000000000000000000000000000000000000000000000000000000006001600160a01b03169063a9059cbb906044016020604051808303816000875af115801561056c573d6000803e3d6000fd5b505050506040513d601f19601f820116820180604052508101906105909190610d48565b5050336000908152600260205260409020805460ff191660019081178255429101556104e76001600055565b6001600160a01b03811660009081526002602052604081205460ff1615806105fd57506001600160a01b03821660009081526001602052604090205460ff16155b1561060a57506000919050565b6001600160a01b0382166000908152600260205260408120600101546106309042610d80565b6001600160a01b03841660009081526001602081905260408220810154929350909161065b91610d97565b61066a8364e8d4a51000610daf565b6106749190610daf565b949350505050565b610684610a21565b604051627eeac760e11b8152336004820152602481018290526001907f00000000000000000000000000000000000000000000000000000000000000006001600160a01b03169062fdd58e90604401602060405180830381865afa1580156106f0573d6000803e3d6000fd5b505050506040513d601f19601f820116820180604052508101906107149190610dce565b10156107885760405162461bcd60e51b815260206004820152603f60248201527f596f75206d7573742068617665206174206c656173742031206f66207468652060448201527f7069636b61786520796f752061726520747279696e6720746f207374616b6500606482015260840161032a565b3360009081526001602052604090205460ff161561087857336000818152600160208190526040918290208101549151637921219560e11b815230600482015260248101939093526044830191909152606482015260a06084820152601a60a48201527f52657475726e696e6720796f7572206f6c64207069636b61786500000000000060c48201527f00000000000000000000000000000000000000000000000000000000000000006001600160a01b03169063f242432a9060e401600060405180830381600087803b15801561085f57600080fd5b505af1158015610873573d6000803e3d6000fd5b505050505b6000610883336105bc565b60405163a9059cbb60e01b8152336004820152602481018290529091507f00000000000000000000000000000000000000000000000000000000000000006001600160a01b03169063a9059cbb906044016020604051808303816000875af11580156108f3573d6000803e3d6000fd5b505050506040513d601f19601f820116820180604052508101906109179190610d48565b50604051637921219560e11b8152336004820152306024820152604481018390526001606482015260a06084820152601460a48201527f5374616b696e6720796f7572207069636b61786500000000000000000000000060c48201527f00000000000000000000000000000000000000000000000000000000000000006001600160a01b03169063f242432a9060e401600060405180830381600087803b1580156109c157600080fd5b505af11580156109d5573d6000803e3d6000fd5b5050336000908152600160208181526040808420808401899055805460ff19908116851790915560029092529092208054909216811782554291015550610a1e9150610a7a9050565b50565b600260005403610a735760405162461bcd60e51b815260206004820152601f60248201527f5265656e7472616e637947756172643a207265656e7472616e742063616c6c00604482015260640161032a565b6002600055565b6001600055565b600060208284031215610a9357600080fd5b81356001600160e01b031981168114610aab57600080fd5b9392505050565b80356001600160a01b0381168114610ac957600080fd5b919050565b600060208284031215610ae057600080fd5b610aab82610ab2565b600060208284031215610afb57600080fd5b5035919050565b634e487b7160e01b600052604160045260246000fd5b604051601f8201601f1916810167ffffffffffffffff81118282101715610b4157610b41610b02565b604052919050565b600082601f830112610b5a57600080fd5b8135602067ffffffffffffffff821115610b7657610b76610b02565b8160051b610b85828201610b18565b9283528481018201928281019087851115610b9f57600080fd5b83870192505b84831015610bbe57823582529183019190830190610ba5565b979650505050505050565b600082601f830112610bda57600080fd5b813567ffffffffffffffff811115610bf457610bf4610b02565b610c07601f8201601f1916602001610b18565b818152846020838601011115610c1c57600080fd5b816020850160208301376000918101602001919091529392505050565b600080600080600060a08688031215610c5157600080fd5b610c5a86610ab2565b9450610c6860208701610ab2565b9350604086013567ffffffffffffffff80821115610c8557600080fd5b610c9189838a01610b49565b94506060880135915080821115610ca757600080fd5b610cb389838a01610b49565b93506080880135915080821115610cc957600080fd5b50610cd688828901610bc9565b9150509295509295909350565b600080600080600060a08688031215610cfb57600080fd5b610d0486610ab2565b9450610d1260208701610ab2565b93506040860135925060608601359150608086013567ffffffffffffffff811115610d3c57600080fd5b610cd688828901610bc9565b600060208284031215610d5a57600080fd5b81518015158114610aab57600080fd5b634e487b7160e01b600052601160045260246000fd5b600082821015610d9257610d92610d6a565b500390565b60008219821115610daa57610daa610d6a565b500190565b6000816000190483118215151615610dc957610dc9610d6a565b500290565b600060208284031215610de057600080fd5b505191905056fea2646970667358221220d2c453a8ef470d52b61ad1094ef3450bf523a8e20b2b62e23a009496676c4cb664736f6c634300080d0033",
      "opcodes": "PUSH1 0xC0 PUSH1 0x40 MSTORE CALLVALUE DUP1 ISZERO PUSH2 0x10 JUMPI PUSH1 0x0 DUP1 REVERT JUMPDEST POP PUSH1 0x40 MLOAD PUSH2 0xF10 CODESIZE SUB DUP1 PUSH2 0xF10 DUP4 CODECOPY DUP2 ADD PUSH1 0x40 DUP2 SWAP1 MSTORE PUSH2 0x2F SWAP2 PUSH2 0x63 JUMP JUMPDEST PUSH1 0x1 PUSH1 0x0 SSTORE PUSH1 0x1 PUSH1 0x1 PUSH1 0xA0 SHL SUB SWAP2 DUP3 AND PUSH1 0x80 MSTORE AND PUSH1 0xA0 MSTORE PUSH2 0x9D JUMP JUMPDEST PUSH1 0x1 PUSH1 0x1 PUSH1 0xA0 SHL SUB DUP2 AND DUP2 EQ PUSH2 0x60 JUMPI PUSH1 0x0 DUP1 REVERT JUMPDEST POP JUMP JUMPDEST PUSH1 0x0 DUP1 PUSH1 0x40 DUP4 DUP6 SUB SLT ISZERO PUSH2 0x76 JUMPI PUSH1 0x0 DUP1 REVERT JUMPDEST DUP3 MLOAD PUSH2 0x81 DUP2 PUSH2 0x4B JUMP JUMPDEST PUSH1 0x20 DUP5 ADD MLOAD SWAP1 SWAP3 POP PUSH2 0x92 DUP2 PUSH2 0x4B JUMP JUMPDEST DUP1 SWAP2 POP POP SWAP3 POP SWAP3 SWAP1 POP JUMP JUMPDEST PUSH1 0x80 MLOAD PUSH1 0xA0 MLOAD PUSH2 0xE1D PUSH2 0xF3 PUSH1 0x0 CODECOPY PUSH1 0x0 DUP2 DUP2 PUSH2 0x229 ADD MSTORE DUP2 DUP2 PUSH2 0x35D ADD MSTORE DUP2 DUP2 PUSH2 0x51B ADD MSTORE PUSH2 0x8A2 ADD MSTORE PUSH1 0x0 DUP2 DUP2 PUSH2 0x1B2 ADD MSTORE DUP2 DUP2 PUSH2 0x446 ADD MSTORE DUP2 DUP2 PUSH2 0x6A2 ADD MSTORE DUP2 DUP2 PUSH2 0x813 ADD MSTORE PUSH2 0x975 ADD MSTORE PUSH2 0xE1D PUSH1 0x0 RETURN INVALID PUSH1 0x80 PUSH1 0x40 MSTORE CALLVALUE DUP1 ISZERO PUSH2 0x10 JUMPI PUSH1 0x0 DUP1 REVERT JUMPDEST POP PUSH1 0x4 CALLDATASIZE LT PUSH2 0xC9 JUMPI PUSH1 0x0 CALLDATALOAD PUSH1 0xE0 SHR DUP1 PUSH4 0x8194AA77 GT PUSH2 0x81 JUMPI DUP1 PUSH4 0xBC197C81 GT PUSH2 0x5B JUMPI DUP1 PUSH4 0xBC197C81 EQ PUSH2 0x1EC JUMPI DUP1 PUSH4 0xD1AF0C7D EQ PUSH2 0x224 JUMPI DUP1 PUSH4 0xF23A6E61 EQ PUSH2 0x24B JUMPI PUSH1 0x0 DUP1 REVERT JUMPDEST DUP1 PUSH4 0x8194AA77 EQ PUSH2 0x16D JUMPI DUP1 PUSH4 0xA694FC3A EQ PUSH2 0x19A JUMPI DUP1 PUSH4 0xA9B00E25 EQ PUSH2 0x1AD JUMPI PUSH1 0x0 DUP1 REVERT JUMPDEST DUP1 PUSH4 0x3CCFD60B GT PUSH2 0xB2 JUMPI DUP1 PUSH4 0x3CCFD60B EQ PUSH2 0x13A JUMPI DUP1 PUSH4 0x4E71D92D EQ PUSH2 0x144 JUMPI DUP1 PUSH4 0x64AB8675 EQ PUSH2 0x14C JUMPI PUSH1 0x0 DUP1 REVERT JUMPDEST DUP1 PUSH4 0x1FFC9A7 EQ PUSH2 0xCE JUMPI DUP1 PUSH4 0x6ACB8C7 EQ PUSH2 0xF6 JUMPI JUMPDEST PUSH1 0x0 DUP1 REVERT JUMPDEST PUSH2 0xE1 PUSH2 0xDC CALLDATASIZE PUSH1 0x4 PUSH2 0xA81 JUMP JUMPDEST PUSH2 0x26A JUMP JUMPDEST PUSH1 0x40 MLOAD SWAP1 ISZERO ISZERO DUP2 MSTORE PUSH1 0x20 ADD JUMPDEST PUSH1 0x40 MLOAD DUP1 SWAP2 SUB SWAP1 RETURN JUMPDEST PUSH2 0x123 PUSH2 0x104 CALLDATASIZE PUSH1 0x4 PUSH2 0xACE JUMP JUMPDEST PUSH1 0x1 PUSH1 0x20 DUP2 SWAP1 MSTORE PUSH1 0x0 SWAP2 DUP3 MSTORE PUSH1 0x40 SWAP1 SWAP2 KECCAK256 DUP1 SLOAD SWAP2 ADD SLOAD PUSH1 0xFF SWAP1 SWAP2 AND SWAP1 DUP3 JUMP JUMPDEST PUSH1 0x40 DUP1 MLOAD SWAP3 ISZERO ISZERO DUP4 MSTORE PUSH1 0x20 DUP4 ADD SWAP2 SWAP1 SWAP2 MSTORE ADD PUSH2 0xED JUMP JUMPDEST PUSH2 0x142 PUSH2 0x2A1 JUMP JUMPDEST STOP JUMPDEST PUSH2 0x142 PUSH2 0x4E9 JUMP JUMPDEST PUSH2 0x15F PUSH2 0x15A CALLDATASIZE PUSH1 0x4 PUSH2 0xACE JUMP JUMPDEST PUSH2 0x5BC JUMP JUMPDEST PUSH1 0x40 MLOAD SWAP1 DUP2 MSTORE PUSH1 0x20 ADD PUSH2 0xED JUMP JUMPDEST PUSH2 0x123 PUSH2 0x17B CALLDATASIZE PUSH1 0x4 PUSH2 0xACE JUMP JUMPDEST PUSH1 0x2 PUSH1 0x20 MSTORE PUSH1 0x0 SWAP1 DUP2 MSTORE PUSH1 0x40 SWAP1 KECCAK256 DUP1 SLOAD PUSH1 0x1 SWAP1 SWAP2 ADD SLOAD PUSH1 0xFF SWAP1 SWAP2 AND SWAP1 DUP3 JUMP JUMPDEST PUSH2 0x142 PUSH2 0x1A8 CALLDATASIZE PUSH1 0x4 PUSH2 0xAE9 JUMP JUMPDEST PUSH2 0x67C JUMP JUMPDEST PUSH2 0x1D4 PUSH32 0x0 DUP2 JUMP JUMPDEST PUSH1 0x40 MLOAD PUSH1 0x1 PUSH1 0x1 PUSH1 0xA0 SHL SUB SWAP1 SWAP2 AND DUP2 MSTORE PUSH1 0x20 ADD PUSH2 0xED JUMP JUMPDEST PUSH2 0x20B PUSH2 0x1FA CALLDATASIZE PUSH1 0x4 PUSH2 0xC39 JUMP JUMPDEST PUSH4 0xBC197C81 PUSH1 0xE0 SHL SWAP6 SWAP5 POP POP POP POP POP JUMP JUMPDEST PUSH1 0x40 MLOAD PUSH1 0x1 PUSH1 0x1 PUSH1 0xE0 SHL SUB NOT SWAP1 SWAP2 AND DUP2 MSTORE PUSH1 0x20 ADD PUSH2 0xED JUMP JUMPDEST PUSH2 0x1D4 PUSH32 0x0 DUP2 JUMP JUMPDEST PUSH2 0x20B PUSH2 0x259 CALLDATASIZE PUSH1 0x4 PUSH2 0xCE3 JUMP JUMPDEST PUSH4 0xF23A6E61 PUSH1 0xE0 SHL SWAP6 SWAP5 POP POP POP POP POP JUMP JUMPDEST PUSH1 0x0 PUSH1 0x1 PUSH1 0x1 PUSH1 0xE0 SHL SUB NOT DUP3 AND PUSH4 0x2711897 PUSH1 0xE5 SHL EQ DUP1 PUSH2 0x29B JUMPI POP PUSH4 0x1FFC9A7 PUSH1 0xE0 SHL PUSH1 0x1 PUSH1 0x1 PUSH1 0xE0 SHL SUB NOT DUP4 AND EQ JUMPDEST SWAP3 SWAP2 POP POP JUMP JUMPDEST PUSH2 0x2A9 PUSH2 0xA21 JUMP JUMPDEST CALLER PUSH1 0x0 SWAP1 DUP2 MSTORE PUSH1 0x1 PUSH1 0x20 MSTORE PUSH1 0x40 SWAP1 KECCAK256 SLOAD PUSH1 0xFF AND PUSH2 0x333 JUMPI PUSH1 0x40 MLOAD PUSH3 0x461BCD PUSH1 0xE5 SHL DUP2 MSTORE PUSH1 0x20 PUSH1 0x4 DUP3 ADD MSTORE PUSH1 0x26 PUSH1 0x24 DUP3 ADD MSTORE PUSH32 0x596F7520646F206E6F7420686176652061207069636B61786520746F20776974 PUSH1 0x44 DUP3 ADD MSTORE PUSH32 0x68647261772E0000000000000000000000000000000000000000000000000000 PUSH1 0x64 DUP3 ADD MSTORE PUSH1 0x84 ADD JUMPDEST PUSH1 0x40 MLOAD DUP1 SWAP2 SUB SWAP1 REVERT JUMPDEST PUSH1 0x0 PUSH2 0x33E CALLER PUSH2 0x5BC JUMP JUMPDEST PUSH1 0x40 MLOAD PUSH4 0xA9059CBB PUSH1 0xE0 SHL DUP2 MSTORE CALLER PUSH1 0x4 DUP3 ADD MSTORE PUSH1 0x24 DUP2 ADD DUP3 SWAP1 MSTORE SWAP1 SWAP2 POP PUSH32 0x0 PUSH1 0x1 PUSH1 0x1 PUSH1 0xA0 SHL SUB AND SWAP1 PUSH4 0xA9059CBB SWAP1 PUSH1 0x44 ADD PUSH1 0x20 PUSH1 0x40 MLOAD DUP1 DUP4 SUB DUP2 PUSH1 0x0 DUP8 GAS CALL ISZERO DUP1 ISZERO PUSH2 0x3AE JUMPI RETURNDATASIZE PUSH1 0x0 DUP1 RETURNDATACOPY RETURNDATASIZE PUSH1 0x0 REVERT JUMPDEST POP POP POP POP PUSH1 0x40 MLOAD RETURNDATASIZE PUSH1 0x1F NOT PUSH1 0x1F DUP3 ADD AND DUP3 ADD DUP1 PUSH1 0x40 MSTORE POP DUP2 ADD SWAP1 PUSH2 0x3D2 SWAP2 SWAP1 PUSH2 0xD48 JUMP JUMPDEST POP CALLER PUSH1 0x0 DUP2 DUP2 MSTORE PUSH1 0x1 PUSH1 0x20 DUP2 SWAP1 MSTORE PUSH1 0x40 SWAP2 DUP3 SWAP1 KECCAK256 DUP2 ADD SLOAD SWAP2 MLOAD PUSH4 0x79212195 PUSH1 0xE1 SHL DUP2 MSTORE ADDRESS PUSH1 0x4 DUP3 ADD MSTORE PUSH1 0x24 DUP2 ADD SWAP4 SWAP1 SWAP4 MSTORE PUSH1 0x44 DUP4 ADD SWAP2 SWAP1 SWAP2 MSTORE PUSH1 0x64 DUP3 ADD MSTORE PUSH1 0xA0 PUSH1 0x84 DUP3 ADD MSTORE PUSH1 0x1A PUSH1 0xA4 DUP3 ADD MSTORE PUSH32 0x52657475726E696E6720796F7572206F6C64207069636B617865000000000000 PUSH1 0xC4 DUP3 ADD MSTORE PUSH32 0x0 PUSH1 0x1 PUSH1 0x1 PUSH1 0xA0 SHL SUB AND SWAP1 PUSH4 0xF242432A SWAP1 PUSH1 0xE4 ADD PUSH1 0x0 PUSH1 0x40 MLOAD DUP1 DUP4 SUB DUP2 PUSH1 0x0 DUP8 DUP1 EXTCODESIZE ISZERO DUP1 ISZERO PUSH2 0x492 JUMPI PUSH1 0x0 DUP1 REVERT JUMPDEST POP GAS CALL ISZERO DUP1 ISZERO PUSH2 0x4A6 JUMPI RETURNDATASIZE PUSH1 0x0 DUP1 RETURNDATACOPY RETURNDATASIZE PUSH1 0x0 REVERT JUMPDEST POP POP CALLER PUSH1 0x0 SWAP1 DUP2 MSTORE PUSH1 0x1 PUSH1 0x20 DUP2 DUP2 MSTORE PUSH1 0x40 DUP1 DUP5 KECCAK256 DUP1 SLOAD PUSH1 0xFF NOT SWAP1 DUP2 AND SWAP1 SWAP2 SSTORE PUSH1 0x2 SWAP1 SWAP3 MSTORE SWAP1 SWAP3 KECCAK256 DUP1 SLOAD SWAP1 SWAP3 AND DUP2 OR DUP3 SSTORE TIMESTAMP SWAP2 ADD SSTORE POP PUSH2 0x4E7 SWAP2 POP PUSH2 0xA7A SWAP1 POP JUMP JUMPDEST JUMP JUMPDEST PUSH2 0x4F1 PUSH2 0xA21 JUMP JUMPDEST PUSH1 0x0 PUSH2 0x4FC CALLER PUSH2 0x5BC JUMP JUMPDEST PUSH1 0x40 MLOAD PUSH4 0xA9059CBB PUSH1 0xE0 SHL DUP2 MSTORE CALLER PUSH1 0x4 DUP3 ADD MSTORE PUSH1 0x24 DUP2 ADD DUP3 SWAP1 MSTORE SWAP1 SWAP2 POP PUSH32 0x0 PUSH1 0x1 PUSH1 0x1 PUSH1 0xA0 SHL SUB AND SWAP1 PUSH4 0xA9059CBB SWAP1 PUSH1 0x44 ADD PUSH1 0x20 PUSH1 0x40 MLOAD DUP1 DUP4 SUB DUP2 PUSH1 0x0 DUP8 GAS CALL ISZERO DUP1 ISZERO PUSH2 0x56C JUMPI RETURNDATASIZE PUSH1 0x0 DUP1 RETURNDATACOPY RETURNDATASIZE PUSH1 0x0 REVERT JUMPDEST POP POP POP POP PUSH1 0x40 MLOAD RETURNDATASIZE PUSH1 0x1F NOT PUSH1 0x1F DUP3 ADD AND DUP3 ADD DUP1 PUSH1 0x40 MSTORE POP DUP2 ADD SWAP1 PUSH2 0x590 SWAP2 SWAP1 PUSH2 0xD48 JUMP JUMPDEST POP POP CALLER PUSH1 0x0 SWAP1 DUP2 MSTORE PUSH1 0x2 PUSH1 0x20 MSTORE PUSH1 0x40 SWAP1 KECCAK256 DUP1 SLOAD PUSH1 0xFF NOT AND PUSH1 0x1 SWAP1 DUP2 OR DUP3 SSTORE TIMESTAMP SWAP2 ADD SSTORE PUSH2 0x4E7 PUSH1 0x1 PUSH1 0x0 SSTORE JUMP JUMPDEST PUSH1 0x1 PUSH1 0x1 PUSH1 0xA0 SHL SUB DUP2 AND PUSH1 0x0 SWAP1 DUP2 MSTORE PUSH1 0x2 PUSH1 0x20 MSTORE PUSH1 0x40 DUP2 KECCAK256 SLOAD PUSH1 0xFF AND ISZERO DUP1 PUSH2 0x5FD JUMPI POP PUSH1 0x1 PUSH1 0x1 PUSH1 0xA0 SHL SUB DUP3 AND PUSH1 0x0 SWAP1 DUP2 MSTORE PUSH1 0x1 PUSH1 0x20 MSTORE PUSH1 0x40 SWAP1 KECCAK256 SLOAD PUSH1 0xFF AND ISZERO JUMPDEST ISZERO PUSH2 0x60A JUMPI POP PUSH1 0x0 SWAP2 SWAP1 POP JUMP JUMPDEST PUSH1 0x1 PUSH1 0x1 PUSH1 0xA0 SHL SUB DUP3 AND PUSH1 0x0 SWAP1 DUP2 MSTORE PUSH1 0x2 PUSH1 0x20 MSTORE PUSH1 0x40 DUP2 KECCAK256 PUSH1 0x1 ADD SLOAD PUSH2 0x630 SWAP1 TIMESTAMP PUSH2 0xD80 JUMP JUMPDEST PUSH1 0x1 PUSH1 0x1 PUSH1 0xA0 SHL SUB DUP5 AND PUSH1 0x0 SWAP1 DUP2 MSTORE PUSH1 0x1 PUSH1 0x20 DUP2 SWAP1 MSTORE PUSH1 0x40 DUP3 KECCAK256 DUP2 ADD SLOAD SWAP3 SWAP4 POP SWAP1 SWAP2 PUSH2 0x65B SWAP2 PUSH2 0xD97 JUMP JUMPDEST PUSH2 0x66A DUP4 PUSH5 0xE8D4A51000 PUSH2 0xDAF JUMP JUMPDEST PUSH2 0x674 SWAP2 SWAP1 PUSH2 0xDAF JUMP JUMPDEST SWAP5 SWAP4 POP POP POP POP JUMP JUMPDEST PUSH2 0x684 PUSH2 0xA21 JUMP JUMPDEST PUSH1 0x40 MLOAD PUSH3 0x7EEAC7 PUSH1 0xE1 SHL DUP2 MSTORE CALLER PUSH1 0x4 DUP3 ADD MSTORE PUSH1 0x24 DUP2 ADD DUP3 SWAP1 MSTORE PUSH1 0x1 SWAP1 PUSH32 0x0 PUSH1 0x1 PUSH1 0x1 PUSH1 0xA0 SHL SUB AND SWAP1 PUSH3 0xFDD58E SWAP1 PUSH1 0x44 ADD PUSH1 0x20 PUSH1 0x40 MLOAD DUP1 DUP4 SUB DUP2 DUP7 GAS STATICCALL ISZERO DUP1 ISZERO PUSH2 0x6F0 JUMPI RETURNDATASIZE PUSH1 0x0 DUP1 RETURNDATACOPY RETURNDATASIZE PUSH1 0x0 REVERT JUMPDEST POP POP POP POP PUSH1 0x40 MLOAD RETURNDATASIZE PUSH1 0x1F NOT PUSH1 0x1F DUP3 ADD AND DUP3 ADD DUP1 PUSH1 0x40 MSTORE POP DUP2 ADD SWAP1 PUSH2 0x714 SWAP2 SWAP1 PUSH2 0xDCE JUMP JUMPDEST LT ISZERO PUSH2 0x788 JUMPI PUSH1 0x40 MLOAD PUSH3 0x461BCD PUSH1 0xE5 SHL DUP2 MSTORE PUSH1 0x20 PUSH1 0x4 DUP3 ADD MSTORE PUSH1 0x3F PUSH1 0x24 DUP3 ADD MSTORE PUSH32 0x596F75206D7573742068617665206174206C656173742031206F662074686520 PUSH1 0x44 DUP3 ADD MSTORE PUSH32 0x7069636B61786520796F752061726520747279696E6720746F207374616B6500 PUSH1 0x64 DUP3 ADD MSTORE PUSH1 0x84 ADD PUSH2 0x32A JUMP JUMPDEST CALLER PUSH1 0x0 SWAP1 DUP2 MSTORE PUSH1 0x1 PUSH1 0x20 MSTORE PUSH1 0x40 SWAP1 KECCAK256 SLOAD PUSH1 0xFF AND ISZERO PUSH2 0x878 JUMPI CALLER PUSH1 0x0 DUP2 DUP2 MSTORE PUSH1 0x1 PUSH1 0x20 DUP2 SWAP1 MSTORE PUSH1 0x40 SWAP2 DUP3 SWAP1 KECCAK256 DUP2 ADD SLOAD SWAP2 MLOAD PUSH4 0x79212195 PUSH1 0xE1 SHL DUP2 MSTORE ADDRESS PUSH1 0x4 DUP3 ADD MSTORE PUSH1 0x24 DUP2 ADD SWAP4 SWAP1 SWAP4 MSTORE PUSH1 0x44 DUP4 ADD SWAP2 SWAP1 SWAP2 MSTORE PUSH1 0x64 DUP3 ADD MSTORE PUSH1 0xA0 PUSH1 0x84 DUP3 ADD MSTORE PUSH1 0x1A PUSH1 0xA4 DUP3 ADD MSTORE PUSH32 0x52657475726E696E6720796F7572206F6C64207069636B617865000000000000 PUSH1 0xC4 DUP3 ADD MSTORE PUSH32 0x0 PUSH1 0x1 PUSH1 0x1 PUSH1 0xA0 SHL SUB AND SWAP1 PUSH4 0xF242432A SWAP1 PUSH1 0xE4 ADD PUSH1 0x0 PUSH1 0x40 MLOAD DUP1 DUP4 SUB DUP2 PUSH1 0x0 DUP8 DUP1 EXTCODESIZE ISZERO DUP1 ISZERO PUSH2 0x85F JUMPI PUSH1 0x0 DUP1 REVERT JUMPDEST POP GAS CALL ISZERO DUP1 ISZERO PUSH2 0x873 JUMPI RETURNDATASIZE PUSH1 0x0 DUP1 RETURNDATACOPY RETURNDATASIZE PUSH1 0x0 REVERT JUMPDEST POP POP POP POP JUMPDEST PUSH1 0x0 PUSH2 0x883 CALLER PUSH2 0x5BC JUMP JUMPDEST PUSH1 0x40 MLOAD PUSH4 0xA9059CBB PUSH1 0xE0 SHL DUP2 MSTORE CALLER PUSH1 0x4 DUP3 ADD MSTORE PUSH1 0x24 DUP2 ADD DUP3 SWAP1 MSTORE SWAP1 SWAP2 POP PUSH32 0x0 PUSH1 0x1 PUSH1 0x1 PUSH1 0xA0 SHL SUB AND SWAP1 PUSH4 0xA9059CBB SWAP1 PUSH1 0x44 ADD PUSH1 0x20 PUSH1 0x40 MLOAD DUP1 DUP4 SUB DUP2 PUSH1 0x0 DUP8 GAS CALL ISZERO DUP1 ISZERO PUSH2 0x8F3 JUMPI RETURNDATASIZE PUSH1 0x0 DUP1 RETURNDATACOPY RETURNDATASIZE PUSH1 0x0 REVERT JUMPDEST POP POP POP POP PUSH1 0x40 MLOAD RETURNDATASIZE PUSH1 0x1F NOT PUSH1 0x1F DUP3 ADD AND DUP3 ADD DUP1 PUSH1 0x40 MSTORE POP DUP2 ADD SWAP1 PUSH2 0x917 SWAP2 SWAP1 PUSH2 0xD48 JUMP JUMPDEST POP PUSH1 0x40 MLOAD PUSH4 0x79212195 PUSH1 0xE1 SHL DUP2 MSTORE CALLER PUSH1 0x4 DUP3 ADD MSTORE ADDRESS PUSH1 0x24 DUP3 ADD MSTORE PUSH1 0x44 DUP2 ADD DUP4 SWAP1 MSTORE PUSH1 0x1 PUSH1 0x64 DUP3 ADD MSTORE PUSH1 0xA0 PUSH1 0x84 DUP3 ADD MSTORE PUSH1 0x14 PUSH1 0xA4 DUP3 ADD MSTORE PUSH32 0x5374616B696E6720796F7572207069636B617865000000000000000000000000 PUSH1 0xC4 DUP3 ADD MSTORE PUSH32 0x0 PUSH1 0x1 PUSH1 0x1 PUSH1 0xA0 SHL SUB AND SWAP1 PUSH4 0xF242432A SWAP1 PUSH1 0xE4 ADD PUSH1 0x0 PUSH1 0x40 MLOAD DUP1 DUP4 SUB DUP2 PUSH1 0x0 DUP8 DUP1 EXTCODESIZE ISZERO DUP1 ISZERO PUSH2 0x9C1 JUMPI PUSH1 0x0 DUP1 REVERT JUMPDEST POP GAS CALL ISZERO DUP1 ISZERO PUSH2 0x9D5 JUMPI RETURNDATASIZE PUSH1 0x0 DUP1 RETURNDATACOPY RETURNDATASIZE PUSH1 0x0 REVERT JUMPDEST POP POP CALLER PUSH1 0x0 SWAP1 DUP2 MSTORE PUSH1 0x1 PUSH1 0x20 DUP2 DUP2 MSTORE PUSH1 0x40 DUP1 DUP5 KECCAK256 DUP1 DUP5 ADD DUP10 SWAP1 SSTORE DUP1 SLOAD PUSH1 0xFF NOT SWAP1 DUP2 AND DUP6 OR SWAP1 SWAP2 SSTORE PUSH1 0x2 SWAP1 SWAP3 MSTORE SWAP1 SWAP3 KECCAK256 DUP1 SLOAD SWAP1 SWAP3 AND DUP2 OR DUP3 SSTORE TIMESTAMP SWAP2 ADD SSTORE POP PUSH2 0xA1E SWAP2 POP PUSH2 0xA7A SWAP1 POP JUMP JUMPDEST POP JUMP JUMPDEST PUSH1 0x2 PUSH1 0x0 SLOAD SUB PUSH2 0xA73 JUMPI PUSH1 0x40 MLOAD PUSH3 0x461BCD PUSH1 0xE5 SHL DUP2 MSTORE PUSH1 0x20 PUSH1 0x4 DUP3 ADD MSTORE PUSH1 0x1F PUSH1 0x24 DUP3 ADD MSTORE PUSH32 0x5265656E7472616E637947756172643A207265656E7472616E742063616C6C00 PUSH1 0x44 DUP3 ADD MSTORE PUSH1 0x64 ADD PUSH2 0x32A JUMP JUMPDEST PUSH1 0x2 PUSH1 0x0 SSTORE JUMP JUMPDEST PUSH1 0x1 PUSH1 0x0 SSTORE JUMP JUMPDEST PUSH1 0x0 PUSH1 0x20 DUP3 DUP5 SUB SLT ISZERO PUSH2 0xA93 JUMPI PUSH1 0x0 DUP1 REVERT JUMPDEST DUP2 CALLDATALOAD PUSH1 0x1 PUSH1 0x1 PUSH1 0xE0 SHL SUB NOT DUP2 AND DUP2 EQ PUSH2 0xAAB JUMPI PUSH1 0x0 DUP1 REVERT JUMPDEST SWAP4 SWAP3 POP POP POP JUMP JUMPDEST DUP1 CALLDATALOAD PUSH1 0x1 PUSH1 0x1 PUSH1 0xA0 SHL SUB DUP2 AND DUP2 EQ PUSH2 0xAC9 JUMPI PUSH1 0x0 DUP1 REVERT JUMPDEST SWAP2 SWAP1 POP JUMP JUMPDEST PUSH1 0x0 PUSH1 0x20 DUP3 DUP5 SUB SLT ISZERO PUSH2 0xAE0 JUMPI PUSH1 0x0 DUP1 REVERT JUMPDEST PUSH2 0xAAB DUP3 PUSH2 0xAB2 JUMP JUMPDEST PUSH1 0x0 PUSH1 0x20 DUP3 DUP5 SUB SLT ISZERO PUSH2 0xAFB JUMPI PUSH1 0x0 DUP1 REVERT JUMPDEST POP CALLDATALOAD SWAP2 SWAP1 POP JUMP JUMPDEST PUSH4 0x4E487B71 PUSH1 0xE0 SHL PUSH1 0x0 MSTORE PUSH1 0x41 PUSH1 0x4 MSTORE PUSH1 0x24 PUSH1 0x0 REVERT JUMPDEST PUSH1 0x40 MLOAD PUSH1 0x1F DUP3 ADD PUSH1 0x1F NOT AND DUP2 ADD PUSH8 0xFFFFFFFFFFFFFFFF DUP2 GT DUP3 DUP3 LT OR ISZERO PUSH2 0xB41 JUMPI PUSH2 0xB41 PUSH2 0xB02 JUMP JUMPDEST PUSH1 0x40 MSTORE SWAP2 SWAP1 POP JUMP JUMPDEST PUSH1 0x0 DUP3 PUSH1 0x1F DUP4 ADD SLT PUSH2 0xB5A JUMPI PUSH1 0x0 DUP1 REVERT JUMPDEST DUP2 CALLDATALOAD PUSH1 0x20 PUSH8 0xFFFFFFFFFFFFFFFF DUP3 GT ISZERO PUSH2 0xB76 JUMPI PUSH2 0xB76 PUSH2 0xB02 JUMP JUMPDEST DUP2 PUSH1 0x5 SHL PUSH2 0xB85 DUP3 DUP3 ADD PUSH2 0xB18 JUMP JUMPDEST SWAP3 DUP4 MSTORE DUP5 DUP2 ADD DUP3 ADD SWAP3 DUP3 DUP2 ADD SWAP1 DUP8 DUP6 GT ISZERO PUSH2 0xB9F JUMPI PUSH1 0x0 DUP1 REVERT JUMPDEST DUP4 DUP8 ADD SWAP3 POP JUMPDEST DUP5 DUP4 LT ISZERO PUSH2 0xBBE JUMPI DUP3 CALLDATALOAD DUP3 MSTORE SWAP2 DUP4 ADD SWAP2 SWAP1 DUP4 ADD SWAP1 PUSH2 0xBA5 JUMP JUMPDEST SWAP8 SWAP7 POP POP POP POP POP POP POP JUMP JUMPDEST PUSH1 0x0 DUP3 PUSH1 0x1F DUP4 ADD SLT PUSH2 0xBDA JUMPI PUSH1 0x0 DUP1 REVERT JUMPDEST DUP2 CALLDATALOAD PUSH8 0xFFFFFFFFFFFFFFFF DUP2 GT ISZERO PUSH2 0xBF4 JUMPI PUSH2 0xBF4 PUSH2 0xB02 JUMP JUMPDEST PUSH2 0xC07 PUSH1 0x1F DUP3 ADD PUSH1 0x1F NOT AND PUSH1 0x20 ADD PUSH2 0xB18 JUMP JUMPDEST DUP2 DUP2 MSTORE DUP5 PUSH1 0x20 DUP4 DUP7 ADD ADD GT ISZERO PUSH2 0xC1C JUMPI PUSH1 0x0 DUP1 REVERT JUMPDEST DUP2 PUSH1 0x20 DUP6 ADD PUSH1 0x20 DUP4 ADD CALLDATACOPY PUSH1 0x0 SWAP2 DUP2 ADD PUSH1 0x20 ADD SWAP2 SWAP1 SWAP2 MSTORE SWAP4 SWAP3 POP POP POP JUMP JUMPDEST PUSH1 0x0 DUP1 PUSH1 0x0 DUP1 PUSH1 0x0 PUSH1 0xA0 DUP7 DUP9 SUB SLT ISZERO PUSH2 0xC51 JUMPI PUSH1 0x0 DUP1 REVERT JUMPDEST PUSH2 0xC5A DUP7 PUSH2 0xAB2 JUMP JUMPDEST SWAP5 POP PUSH2 0xC68 PUSH1 0x20 DUP8 ADD PUSH2 0xAB2 JUMP JUMPDEST SWAP4 POP PUSH1 0x40 DUP7 ADD CALLDATALOAD PUSH8 0xFFFFFFFFFFFFFFFF DUP1 DUP3 GT ISZERO PUSH2 0xC85 JUMPI PUSH1 0x0 DUP1 REVERT JUMPDEST PUSH2 0xC91 DUP10 DUP4 DUP11 ADD PUSH2 0xB49 JUMP JUMPDEST SWAP5 POP PUSH1 0x60 DUP9 ADD CALLDATALOAD SWAP2 POP DUP1 DUP3 GT ISZERO PUSH2 0xCA7 JUMPI PUSH1 0x0 DUP1 REVERT JUMPDEST PUSH2 0xCB3 DUP10 DUP4 DUP11 ADD PUSH2 0xB49 JUMP JUMPDEST SWAP4 POP PUSH1 0x80 DUP9 ADD CALLDATALOAD SWAP2 POP DUP1 DUP3 GT ISZERO PUSH2 0xCC9 JUMPI PUSH1 0x0 DUP1 REVERT JUMPDEST POP PUSH2 0xCD6 DUP9 DUP3 DUP10 ADD PUSH2 0xBC9 JUMP JUMPDEST SWAP2 POP POP SWAP3 SWAP6 POP SWAP3 SWAP6 SWAP1 SWAP4 POP JUMP JUMPDEST PUSH1 0x0 DUP1 PUSH1 0x0 DUP1 PUSH1 0x0 PUSH1 0xA0 DUP7 DUP9 SUB SLT ISZERO PUSH2 0xCFB JUMPI PUSH1 0x0 DUP1 REVERT JUMPDEST PUSH2 0xD04 DUP7 PUSH2 0xAB2 JUMP JUMPDEST SWAP5 POP PUSH2 0xD12 PUSH1 0x20 DUP8 ADD PUSH2 0xAB2 JUMP JUMPDEST SWAP4 POP PUSH1 0x40 DUP7 ADD CALLDATALOAD SWAP3 POP PUSH1 0x60 DUP7 ADD CALLDATALOAD SWAP2 POP PUSH1 0x80 DUP7 ADD CALLDATALOAD PUSH8 0xFFFFFFFFFFFFFFFF DUP2 GT ISZERO PUSH2 0xD3C JUMPI PUSH1 0x0 DUP1 REVERT JUMPDEST PUSH2 0xCD6 DUP9 DUP3 DUP10 ADD PUSH2 0xBC9 JUMP JUMPDEST PUSH1 0x0 PUSH1 0x20 DUP3 DUP5 SUB SLT ISZERO PUSH2 0xD5A JUMPI PUSH1 0x0 DUP1 REVERT JUMPDEST DUP2 MLOAD DUP1 ISZERO ISZERO DUP2 EQ PUSH2 0xAAB JUMPI PUSH1 0x0 DUP1 REVERT JUMPDEST PUSH4 0x4E487B71 PUSH1 0xE0 SHL PUSH1 0x0 MSTORE PUSH1 0x11 PUSH1 0x4 MSTORE PUSH1 0x24 PUSH1 0x0 REVERT JUMPDEST PUSH1 0x0 DUP3 DUP3 LT ISZERO PUSH2 0xD92 JUMPI PUSH2 0xD92 PUSH2 0xD6A JUMP JUMPDEST POP SUB SWAP1 JUMP JUMPDEST PUSH1 0x0 DUP3 NOT DUP3 GT ISZERO PUSH2 0xDAA JUMPI PUSH2 0xDAA PUSH2 0xD6A JUMP JUMPDEST POP ADD SWAP1 JUMP JUMPDEST PUSH1 0x0 DUP2 PUSH1 0x0 NOT DIV DUP4 GT DUP3 ISZERO ISZERO AND ISZERO PUSH2 0xDC9 JUMPI PUSH2 0xDC9 PUSH2 0xD6A JUMP JUMPDEST POP MUL SWAP1 JUMP JUMPDEST PUSH1 0x0 PUSH1 0x20 DUP3 DUP5 SUB SLT ISZERO PUSH2 0xDE0 JUMPI PUSH1 0x0 DUP1 REVERT JUMPDEST POP MLOAD SWAP2 SWAP1 POP JUMP INVALID LOG2 PUSH5 0x6970667358 0x22 SLT KECCAK256 0xD2 0xC4 MSTORE8 0xA8 0xEF SELFBALANCE 0xD MSTORE 0xB6 BYTE 0xD1 MULMOD 0x4E RETURN GASLIMIT SIGNEXTEND CREATE2 0x23 0xA8 0xE2 SIGNEXTEND 0x2B PUSH3 0xE23A00 SWAP5 SWAP7 PUSH8 0x6C4CB664736F6C63 NUMBER STOP ADDMOD 0xD STOP CALLER "
    },
    "gasEstimates": {
      "creation": {
        "codeDepositCost": "722600",
        "executionCost": "infinite",
        "totalCost": "infinite"
      },
      "external": {
        "calculateRewards(address)": "infinite",
        "claim()": "infinite",
        "onERC1155BatchReceived(address,address,uint256[],uint256[],bytes)": "infinite",
        "onERC1155Received(address,address,uint256,uint256,bytes)": "infinite",
        "pickaxeNftCollection()": "infinite",
        "playerLastUpdate(address)": "4702",
        "playerPickaxe(address)": "4728",
        "rewardsToken()": "infinite",
        "stake(uint256)": "infinite",
        "supportsInterface(bytes4)": "450",
        "withdraw()": "infinite"
      }
    },
    "methodIdentifiers": {
      "calculateRewards(address)": "64ab8675",
      "claim()": "4e71d92d",
      "onERC1155BatchReceived(address,address,uint256[],uint256[],bytes)": "bc197c81",
      "onERC1155Received(address,address,uint256,uint256,bytes)": "f23a6e61",
      "pickaxeNftCollection()": "a9b00e25",
      "playerLastUpdate(address)": "8194aa77",
      "playerPickaxe(address)": "06acb8c7",
      "rewardsToken()": "d1af0c7d",
      "stake(uint256)": "a694fc3a",
      "supportsInterface(bytes4)": "01ffc9a7",
      "withdraw()": "3ccfd60b"
    }
  },
  "storageLayout": {
    "storage": [
      {
        "astId": 4327,
        "contract": "Mining.sol:TTAMiningGameV1",
        "label": "_status",
        "offset": 0,
        "slot": "0",
        "type": "t_uint256"
      },
      {
        "astId": 43,
        "contract": "Mining.sol:TTAMiningGameV1",
        "label": "playerPickaxe",
        "offset": 0,
        "slot": "1",
        "type": "t_mapping(t_address,t_struct(MapValue)38_storage)"
      },
      {
        "astId": 48,
        "contract": "Mining.sol:TTAMiningGameV1",
        "label": "playerLastUpdate",
        "offset": 0,
        "slot": "2",
        "type": "t_mapping(t_address,t_struct(MapValue)38_storage)"
      }
    ],
    "types": {
      "t_address": {
        "encoding": "inplace",
        "label": "address",
        "numberOfBytes": "20"
      },
      "t_bool": {
        "encoding": "inplace",
        "label": "bool",
        "numberOfBytes": "1"
      },
      "t_mapping(t_address,t_struct(MapValue)38_storage)": {
        "encoding": "mapping",
        "key": "t_address",
        "label": "mapping(address => struct TTAMiningGameV1.MapValue)",
        "numberOfBytes": "32",
        "value": "t_struct(MapValue)38_storage"
      },
      "t_struct(MapValue)38_storage": {
        "encoding": "inplace",
        "label": "struct TTAMiningGameV1.MapValue",
        "members": [
          {
            "astId": 35,
            "contract": "Mining.sol:TTAMiningGameV1",
            "label": "isData",
            "offset": 0,
            "slot": "0",
            "type": "t_bool"
          },
          {
            "astId": 37,
            "contract": "Mining.sol:TTAMiningGameV1",
            "label": "value",
            "offset": 0,
            "slot": "1",
            "type": "t_uint256"
          }
        ],
        "numberOfBytes": "64"
      },
      "t_uint256": {
        "encoding": "inplace",
        "label": "uint256",
        "numberOfBytes": "32"
      }
    }
  },
  "userdoc": {
    "kind": "user",
    "methods": {},
    "version": 1
  }
}